:100000000C9435010C9466010C9466010C94660105
:100010000C9466010C9466010C9466010C946601C4
:100020000C9466010C9466010C9466010C946601B4
:100030000C9466010C9466010C9466010C946601A4
:100040000C9466010C9466010C9466010C94660194
:100050000C9466010C9466010C9466010C94FA05EC
:100060000C9466010C94C4050C949A050C946601DA
:100070000C9466010C9466010C9466010C94660164
:100080000C9466010C9466010C9466010C94660154
:100090000C9466010C9466010C9466010C94660144
:1000A0000C9466010C9466010C9466010C94660134
:1000B0000C9466010C9466010C9466010C94660124
:1000C0000C9466010C9466010C9466010C94660114
:1000D0000C9466010C9466010C9466010C94660104
:1000E0000C9466010C9468010C94D9020C94BA0229
:1000F0000C94ED020C94DF020C94C6010C94E70200
:100100000C94C0020C9495070C944B020C94E302DF
:100110000C94CF020C94F5020C94F1020C94FF02A3
:100120000C94D5020C94FE010C94C8020C94950119
:100130000C94FB020C94C4020C94CC020C94B801F5
:100140000C94A4010C94FA02000021002400270062
:100150002A002D00300033000101000004010701D6
:100160000A0100002200250028002B002E0031008B
:10017000340002010000050108010B01000020000D
:100180002300260029002C002F003200000100006F
:10019000030106010901050505050705080808080A
:1001A000020202020A0A080804040404010101010F
:1001B000010101010303030303030303040707070A
:1001C0000C0C0C0C0C0C0C0C0202020206060606AF
:1001D000060606060B0B0B0B0B0B0B0B010210207C
:1001E000200808102040102040800201020108046D
:1001F0000201010204081020408080402010080401
:100200000201800402018040201008040201080459
:10021000020101020408102040800102040810209D
:10022000408000000A0B02090C0D0E0807030401B0
:1002300000000000000000000000000000000000BE
:10024000000000000000000000000000000012118B
:10025000100000000000000000000000000000008E
:100260000000000000000000950711241FBECFEF22
:10027000D1E2DEBFCDBF00E00CBF13E0A0E0B2E0F2
:10028000E4E4F5E100E00BBF02C007900D92A8374F
:10029000B107D9F724E0A8E7B3E001C01D92AE3161
:1002A000B207E1F711E0C5E3D1E000E006C0219715
:1002B0000109802FFE010E94C207C433D10780E0EC
:1002C0000807A9F70E9444060C94A00A0C940000A9
:1002D000AF92BF92CF92DF92EF92FF920F931F9354
:1002E000CF93DF936C017B018B01040F151FEB0192
:1002F0005E01AE18BF08C017D10759F06991D60149
:10030000ED91FC910190F081E02DC6011995892BAA
:1003100079F7C501DF91CF911F910F91FF90EF9079
:10032000DF90CF90BF90AF900895FC01538D448D26
:10033000252F30E0842F90E0821B930B541710F090
:10034000CF96089501970895FC01918D828D98179D
:1003500061F0A28DAE0FBF2FB11D5D968C91928D75
:100360009F5F9F73928F90E008958FEF9FEF0895A6
:10037000FC01918D828D981731F0828DE80FF11D6F
:10038000858D90E008958FEF9FEF0895FC01918D8A
:10039000228D892F90E0805C9F4F821B91098F7383
:1003A0009927089581E893E00E94C60121E0892BF6
:1003B00009F420E0822F0895FC01A48DA80FB92F25
:1003C000B11DA35ABF4F2C91848D90E001968F737D
:1003D0009927848FA689B7892C93A089B1898C919C
:1003E000837080648C93938D848D981306C00288EB
:1003F000F389E02D80818F7D80830895EF92FF92B5
:100400000F931F93CF93DF93EC0181E0888F9B8D37
:100410008C8D98131AC0E889F989808185FF15C0F1
:100420009FB7F894EE89FF896083E889F989808114
:100430008370806480839FBF81E090E0DF91CF91E3
:100440001F910F91FF90EF900895F62E0B8D10E005
:100450000F5F1F4F0F731127E02E8C8D8E110CC074
:100460000FB607FCFACFE889F989808185FFF5CFBF
:10047000CE010E94DC01F1CFEB8DEC0FFD2FF11DC1
:10048000E35AFF4FF0829FB7F8940B8FEA89FB89FC
:1004900080818062CFCFCF93DF93EC01888D88235A
:1004A000B9F0AA89BB89E889F9898C9185FD03C0D7
:1004B000808186FD0DC00FB607FCF7CF8C9185FFBC
:1004C000F2CF808185FFEDCFCE010E94DC01E9CF24
:1004D000DF91CF91089580E090E0892B29F00E9470
:1004E000D20181110E94000080E090E0892B49F048
:1004F00080E090E0892B29F00E94000081110E9489
:10050000000080E090E0892B49F080E090E0892BAA
:1005100029F00E94000081110E94000080E090E01C
:10052000892B49F080E090E0892B29F00E9400009F
:1005300081110C94000008958150823108F05AC056
:10054000E82FF0E08827E855FD4F8F4F0C94C20745
:10055000C802CC02BA02C002C402FA02CF02D5021B
:10056000D902DF02E302E702ED02F102FA02F5022C
:10057000FB02FF02809180008F77809380000895B6
:10058000809180008F7DF9CF80918000877FF5CFAB
:1005900084B58F7784BD089584B58F7DFBCF80911E
:1005A000B0008F778093B00008958091B0008F7D68
:1005B000F9CF809190008F7780939000089580917B
:1005C00090008F7DF9CF80919000877FF5CF80914B
:1005D000A0008F778093A00008958091A0008F7D68
:1005E000F9CF8091A000877FF5CF809120018F7790
:1005F000809320010895809120018F7DF9CF809113
:100600002001877FF5CFCF93DF93282F30E0F901CA
:10061000EE5DFD4F8491F901E452FE4FD491F90152
:10062000EA56FE4FC491CC23A1F081110E949C0296
:10063000EC2FF0E0EE0FFF1FE458FE4FA591B491B0
:10064000EC91ED2381E090E009F480E0DF91CF911F
:10065000089580E090E0FACF1F93CF93DF93282F87
:1006600030E0F901EE5DFD4F8491F901E452FE4F57
:10067000D491F901EA56FE4FC491CC23A9F0162F6C
:1006800081110E949C02EC2FF0E0EE0FFF1FEE594B
:10069000FE4FA591B4918FB7F894EC91111108C059
:1006A000D095DE23DC938FBFDF91CF911F9108950A
:1006B000DE2BF8CFCF93DF9390E0FC01E452FE4FA6
:1006C00024918A569E4FFC0184918823C9F090E0C2
:1006D000880F991FFC01E85BFE4FA591B491FC01C6
:1006E000EE59FE4FC591D49161110DC09FB7F8949A
:1006F0008C91209582238C938881282328839FBF07
:10070000DF91CF910895623051F49FB7F8943C91F6
:10071000822F809583238C93E8812E2BEFCF8FB788
:10072000F894EC912E2B2C938FBFEACF3FB7F8941F
:1007300080917D0390917E03A0917F03B09180030F
:1007400026B5A89B05C02F3F19F00196A11DB11D2C
:100750003FBFBA2FA92F982F8827BC01CD01620F68
:10076000711D811D911D42E0660F771F881F991F23
:100770004A95D1F70895CF92DF92EF92FF920E94AF
:1007800096036B017C010E9496036C197D098E090A
:100790009F09683E734081059105A8F3FF90EF9093
:1007A000DF90CF9008950F931F93CF93DF93D0E006
:1007B000C0E010E000E08C2F8A5E0E9403030C2E44
:1007C00002C0880F991F0A94E2F7082B192B219673
:1007D000C430D10581F7C801DF91CF911F910F91EE
:1007E0000895CF93DF93D82FCAE16D2F8C2F0E94ED
:1007F0005A03CF5FC232C9F7DF91CF9108952F928C
:100800003F924F925F926F927F928F929F92AF92A0
:10081000BF92CF92DF92EF92FF920F931F93CF93ED
:10082000DF93CDB7DEB7C850D1400FB6F894DEBF26
:100830000FBECDBF8E010F5F1F4F80E091E0F8012A
:100840009C01119221503040E1F78FE20E94030396
:10085000892B09F034C195E1892E93E0992E8EE21F
:100860000E940303BBE1AB2EB3E0BB2E892B21F02A
:10087000A8E1AA2EA3E0BA2E8DE20E940303892BE1
:1008800009F022C132E7CF5FDE4F3883C150D1403B
:100890008CE20E940303F1E2CF2EF3E0DF2E892BDE
:1008A00021F0EEE1CE2EE3E0DE2E8BE20E94030388
:1008B000892B09F010C197E7CE5FDE4F9883C250B5
:1008C000D1408AE20E94030377E2E72E73E0F72E1D
:1008D000892B21F064E2E62E63E0F62E89E20E9485
:1008E00003035DE2652E53E0752E892B21F04AE269
:1008F000642E43E0742E88E20E94030333E3432E08
:1009000033E0532E892B21F020E3422E23E0522E98
:1009100087E20E940303892B09F0E4C099E3292EA2
:1009200093E0392E86E20E940303892B09F0DFC091
:10093000FDE6CD5FDE4FF883C350D14085E20E94D3
:100940000303892B09F0DAC038E6CC5FDE4F388329
:10095000C450D14084E20E940303892B09F0D5C022
:100960009EE6CB5FDE4F9883C550D14083E20E9464
:100970000303892B09F0D0C0F9E6CA5FDE4FF88384
:10098000C650D14082E20E940303892B09F0CBC0FC
:1009900033E6C95FDE4F3883C750D1400E94D3038E
:1009A0008E5E9D4FFC01F081C85FDE4FF883C8501A
:1009B000D1400E94D3039F928F92BF92AF921F9219
:1009C000CF5FDE4F2881C150D1402F93DF92CF926D
:1009D0001F92CE5FDE4F3881C250D1403F93FF92CD
:1009E000EF927F926F925F924F923F922F921F925F
:1009F000CD5FDE4FE881C350D140EF931F92CC5FB3
:100A0000DE4FF881C450D140FF931F92CB5FDE4F81
:100A10002881C550D1402F931F92CA5FDE4F388185
:100A2000C650D1403F931F92C95FDE4FE881C75047
:100A3000D140EF931F92C85FDE4FF881C850D1407C
:100A4000FF939F938F938CE393E09F938F931F93D8
:100A50000F930E94CA07F80101900020E9F731972F
:100A6000AF01401B510B0FB6F894DEBF0FBECDBFD8
:100A7000B80181E893E00E94680142E050E064E739
:100A800073E081E893E00E946801C85FDE4F0FB613
:100A9000F894DEBF0FBECDBFDF91CF911F910F91B4
:100AA000FF90EF90DF90CF90BF90AF909F908F908E
:100AB0007F906F905F904F903F902F90089582E1CC
:100AC000882E83E0982ECBCE82E5CF5FDE4F8883E1
:100AD000C150D140DDCEE7E5CE5FDE4FE883C250A6
:100AE000D140EFCE86E3282E83E0382E1BCF2DE4B5
:100AF000CD5FDE4F2883C350D14020CF88E4CC5F48
:100B0000DE4F8883C450D14025CFEEE4CB5FDE4F6B
:100B1000E883C550D1402ACF29E4CA5FDE4F28833D
:100B2000C650D1402FCF83E4C95FDE4F8883C750C2
:100B3000D14034CF1F920F920FB60F9211240BB6F3
:100B40000F922F933F934F935F936F937F938F9366
:100B50009F93AF93BF93EF93FF9381E893E00E943D
:100B6000DC01FF91EF91BF91AF919F918F917F91A8
:100B70006F915F914F913F912F910F900BBE0F900E
:100B80000FBE0F901F9018951F920F920FB60F92E5
:100B900011240BB60F922F938F939F93EF93FF9394
:100BA000E0919103F09192038081E0919703F0919D
:100BB000980382FD1DC0908180919A038F5F8F738F
:100BC00020919B03821741F0E0919A03F0E0EF57E8
:100BD000FC4F958F80939A03FF91EF919F918F9196
:100BE0002F910F900BBE0F900FBE0F901F90189576
:100BF0008081F2CF1F920F920FB60F9211242F9384
:100C00003F938F939F93AF93BF938091790390917C
:100C10007A03A0917B03B0917C033091780323E0A9
:100C2000230F2D3758F50196A11DB11D2093780390
:100C30008093790390937A03A0937B03B0937C0312
:100C400080917D0390917E03A0917F03B0918003FA
:100C50000196A11DB11D80937D0390937E03A09307
:100C60007F03B0938003BF91AF919F918F913F918C
:100C70002F910F900FBE0F901F90189526E8230F0D
:100C80000296A11DB11DD2CF789484B5826084BD37
:100C900084B5816084BD85B5826085BD85B5816080
:100CA00085BD80916E00816080936E0010928100FE
:100CB00080918100826080938100809181008160B9
:100CC000809381008091800081608093800080917A
:100CD000B10084608093B1008091B0008160809306
:100CE000B00080919100826080939100809191008A
:100CF000816080939100809190008160809390004A
:100D00008091A10082608093A1008091A100816008
:100D10008093A1008091A00081608093A0008091C9
:100D20002101826080932101809121018160809363
:100D300021018091200181608093200180917A00BF
:100D4000846080937A0080917A00826080937A0038
:100D500080917A00816080937A0080917A00806827
:100D600080937A001092C100E0919103F091920378
:100D700082E08083E0918D03F0918E031082E091F8
:100D80008F03F091900380E1808310929903E091AA
:100D90009503F091960386E08083E0919303F091B0
:100DA0009403808180618083E0919303F0919403A8
:100DB000808188608083E0919303F0919403808127
:100DC00080688083E0919303F091940380818F7D0C
:100DD000808390E080E00E94F10360E086E10E9461
:100DE0005A0360E087E10E945A0360E088E10E94B4
:100DF0005A0360E089E10E945A0361E082E20E94A6
:100E00005A0361E083E20E945A0361E084E20E9497
:100E10005A0361E08BE20E945A0361E08CE20E9477
:100E20005A0361E08DE20E945A0361E082E20E946F
:100E30002C0361E083E20E942C0361E084E20E94C3
:100E40002C0361E08BE20E942C0361E08CE20E94A3
:100E50002C0361E08DE20E942C0360E08DE20E9491
:100E60002C030E94FF03C4E0D0E060E082E20E9415
:100E70002C030E94BB030E94FF0361E082E20E94F8
:100E80002C030E94BB030E94FF03219771F761E0CE
:100E90008DE20E942C030E94FF0382E20E94030362
:100EA00061E0892B09F060E082E20E942C0388E275
:100EB0000E940303892B99F090E080E00E94F103E7
:100EC0000E94FF0381E893E00E94C601892BD1F3C1
:100ED00081E893E00E94A4010E946B02DECF86E2CB
:100EE0000E940303892B61F788E20E940303EC014F
:100EF000892B31F781E090E00E94F1030E94D30337
:100F00008E5E9D4FFC01008110E0B8010C2E02C0E6
:100F1000759567950A94E2F761708AE10E942C0347
:100F20002196C830D10589F7CBCFE1E8F3E01382F1
:100F3000128288EE93E0A0E0B0E084839583A683DC
:100F4000B78384E092E09183808385EC90E095877D
:100F5000848784EC90E09787868780EC90E0918B83
:100F6000808B81EC90E0938B828B82EC90E0958B70
:100F7000848B86EC90E0978B868B118E128E138E6D
:100F8000148E0895EE0FFF1F881F8BBF0790F691F8
:100F9000E02D19940F931F93CF93DF93CDB7DEB756
:100FA0002E970FB6F894DEBF0FBECDBF0E891F89F6
:100FB00086E08C831A8309838FEF9FE79E838D835E
:100FC000AE01465E5F4F688D798DCE0101960E941D
:100FD000FA072F813885020F131FF80110822E9611
:100FE0000FB6F894DEBF0FBECDBFDF91CF911F913A
:100FF0000F9108952F923F924F925F926F927F923E
:101000008F929F92AF92BF92CF92DF92EF92FF9218
:101010000F931F93CF93DF9300D000D000D01F9287
:101020001F92CDB7DEB77C013B018A01FC0117821C
:101030001682838181FFDDC1CE0101965C01F7013B
:101040009381F30193FD859193FF81913F01882363
:1010500009F453C1853239F493FD859193FF819151
:101060003F01853229F4B70190E00E94120AE7CFD0
:10107000912C212C312CFFE1F31538F08B3211F13A
:1010800090F4803209F1833229F137FC3CC020ED25
:10109000280F2A3050F536FE20C08AE0989E200D99
:1010A0001124922E06C08D3291F0803371F768942E
:1010B00030F8F30193FD859193FF81913F018111F8
:1010C000DACF21C0689431F8689432F8F2CF68948E
:1010D00033F8EFCF689434F8ECCFEAE02E9E200D81
:1010E0001124222E689435F8E4CF8E3229F436FC90
:1010F00004C1689436F8DDCF8C3619F4689437F85B
:10110000D8CF8836B1F2982F9F7D95549330E0F078
:101110008336A1F18337C1F1833509F063C028011B
:10112000F2E04F0E511CF801C080D180692D70E0B3
:1011300036FC02C06FEF7FEFC6010E94FC094C0134
:10114000689437F882010AC00C5F1F4FFFE3F983F0
:1011500088248394912C6501E89437F833FE2DC0E0
:10116000522C8114910471F5552009F468CFB70110
:1011700080E290E00E94120A5A94F6CFF801808132
:1011800089830E5F1F4FE4CF2801F2E04F0E511C00
:10119000F801C080D180692D70E036FC02C06FEF8D
:1011A0007FEFC6010E94070A4C018201D5CFB7012B
:1011B00080E290E00E94120A2A942814190409F08F
:1011C000B0F7CECFF60137FC859137FE81916F01E4
:1011D000B70190E00E94120A51105A94F1E08F1A60
:1011E0009108BFCF843619F0893609F077C0F8012D
:1011F00037FE6BC060817181828193810C5F1F4FCC
:10120000F32DFF763F2E97FF09C09095809570953E
:1012100061957F4F8F4F9F4F689437F82AE030E0F9
:10122000A5010E94420AC82ECA188C2C432C36FEF7
:101230000CC0E89440F8C91440F434FE05C032FCF8
:1012400003C0F32DFE7E4F2E892C44FEAAC0FE0162
:10125000EC0DF11D8081803309F09CC0242D297E86
:10126000422E842D8870582E43FCAAC040FEA4C094
:101270009C2C821418F42C0C922C981844FEA6C0B6
:10128000B70180E390E00E94120A42FE09C088E79D
:1012900090E041FE02C088E590E0B7010E94120A8A
:1012A000C91408F49FC0CA94D12C9FEFC91AD90A57
:1012B000CA0CDB1CF60182916F01B70190E00E941D
:1012C000120AAC14BD04B1F74FCF60817181072EB3
:1012D000000C880B990B0E5F1F4F92CFD32CE89414
:1012E000D4F82AE030E08537E1F1232D297FD22E92
:1012F0008F36A9F1F0F4883551F1F7018681978195
:101300002B960FB6F894DEBF0FBECDBFDF91CF9105
:101310001F910F91FF90EF90DF90CF90BF90AF9013
:101320009F908F907F906F905F904F903F902F9005
:101330000895803749F0883701F7D4FE02C06894D9
:10134000D2F820E130E00DC06894D4F8F6CF34FE36
:1013500003C0822F8660D82E20E132E002C028E050
:1013600030E0F801D7FE0FC06081718182819381E6
:101370000C5F1F4FA5010E94420AC82ECA183D2CBF
:10138000E89437F852CF6081718190E080E00E5F81
:101390001F4FF0CF42FC02C0839463CF83948394A9
:1013A00060CF842D867809F45CCFF6CFB70180E258
:1013B00090E00E94120A83948214C0F3512C5ECFF5
:1013C000522C5818821408F459CFF8CF842D8678FF
:1013D00009F466CF8BE241FE80E247FC8DE2B70163
:1013E00090E05CCFB70180E390E00E94120A9A94EB
:1013F00057CF8FEF9FEF84CFFC0105906150704075
:101400000110D8F7809590958E0F9F1F0895FC01CD
:101410006150704001900110D8F7809590958E0F23
:101420009F1F08950F931F93CF93DF93182F092FBA
:10143000EB018B8181FD09C01FEF0FEF812F902FF2
:10144000DF91CF911F910F91089582FF14C02E81DB
:101450003F818C819D81281739073CF4E881F9810F
:10146000CF0101969983888310838E819F81019695
:101470009F838E83E3CFE885F985812F1995892B8A
:10148000A1F3DACFFA01AA27283051F1203181F1F6
:10149000E8946F936E7F6E5F7F4F8F4F9F4FAF4F7C
:1014A000B1E03ED0B4E03CD0670F781F891F9A1F8F
:1014B000A11D680F791F8A1F911DA11D6A0F711D43
:1014C000811D911DA11D20D009F468943F912AE04F
:1014D000269F11243019305D3193DEF6CF01089537
:1014E000462F4770405D4193B3E00FD0C9F7F6CF68
:1014F000462F4F70405D4A3318F0495D31FD405230
:10150000419302D0A9F7EACFB4E0A69597958795C5
:1015100077956795BA95C9F70097610571050895A4
:101520009B01AC010A2E0694579547953795279550
:10153000BA95C9F7620F731F841F951FA01D0895E8
:04154000F894FFCF4D
:1015440000000000FE01680195014B02C601A401E0
:10155400B801760000000000000000000000000058
:101564000000000000000000000000000000000077
:101574000000000000000000000000000000000067
:101584000000000000000000000000000000000057
:101594000000000000000000000000000000000047
:1015A4000000000000000000000000000000000037
:1015B4000000000000000000000000000000000027
:1015C4000000000000000000000000000000000017
:1015D4000000000000000000000000000000000007
:1015E40000000000000000000000000000000000F7
:1015F40000000000000000000000000000000000E7
:1016040000000000000000000000000000000000D6
:1016140000000000000000000000000000000000C6
:1016240000000000000000000000000000000000B6
:1016340000000000000000000000000000000000A6
:101644000000000000000000000000000000000096
:1016540000005246007266004D31006D3100425266
:1016640000627200424100626100575200777200CA
:10167400524400726400494F00696F00413A2530BA
:10168400347820443A25303278202563202563209D
:1016940025632025632025632025732025732025B9
:1016A400732025732025632025732025632025734B
:0816B400202573000D0A00005F
:00000001FF
