:100000000C942D010C945E010C945E010C945E0125
:100010000C945E010C945E010C945E010C945E01E4
:100020000C945E010C945E010C945E010C945E01D4
:100030000C945E010C945E010C945E010C945E01C4
:100040000C945E010C945E010C945E010C945E01B4
:100050000C945E010C945E010C945E010C94BE0540
:100060000C945E010C9488050C945E050C945E0162
:100070000C945E010C945E010C945E010C945E0184
:100080000C945E010C945E010C945E010C945E0174
:100090000C945E010C945E010C945E010C940806B5
:1000A0000C945E010C945E010C945E010C945E0154
:1000B0000C945E010C945E010C945E010C945E0144
:1000C0000C945E010C945E010C945E010C945E0134
:1000D0000C945E010C945E010C945E010C945E0124
:1000E0000C945E010C941C030C94F4040C94040313
:1000F0000C9412030C94C7040C94F8010C940E0396
:100100000C9461010C94C0010C949E010C94C004E9
:100110000C94B2010C942C070C9418030C9400035B
:100120000C949E040C9445020C94C6020C94CB02D1
:100130000C94EC020C94AD040C9462010C94FC023F
:100140000C948F010C94E1020C9423050C94600133
:100150000C94F6020C94F2020C94E9020C94E50261
:100160000C949D040C940A030C94DD020000220000
:10017000250028002B002E00310034000201000071
:10018000050108010B010505050507050808080814
:10019000020202020A0A080804040404010101011F
:1001A000010101010303030303030303040707071A
:1001B0000C0C0C0C0C0C0C0C0202020206060606BF
:1001C000060606060B0B0B0B0B0B0B0B010210208C
:1001D000200808102040102040800201020108047D
:1001E0000201010204081020408080402010080411
:1001F000020180040201804020100804020108046A
:1002000002010102040810204080010204081020AD
:10021000408000000A0B02090C0D0E0807030401C0
:1002200000000000000000000000000000000000CE
:10023000000000000000000000000000000012119B
:10024000100000000000000000000000000000009E
:1002500000000000000000002C0711241FBECFEF9B
:10026000D1E2DEBFCDBF00E00CBF12E0A0E0B2E003
:10027000E4E3F3E100E00BBF02C007900D92A83267
:10028000B107D9F723E0A8E2B2E001C01D92A4397A
:10029000B207E1F711E0CDE2D1E000E006C021971E
:1002A0000109802FFE010E949009CC32D10780E025
:1002B0000807A9F70E9465070C9498090C940000A0
:1002C00008950895AF92BF92CF92DF92EF92FF927E
:1002D0000F931F93CF93DF936C017B018B01040F6E
:1002E000151FEB015E01AE18BF08C017D10759F00A
:1002F0006991D601ED91FC910190F081E02DC6014C
:100300001995892B79F7C501DF91CF911F910F9135
:10031000FF90EF90DF90CF90BF90AF900895FC01D9
:10032000538D448D252F30E0842F90E0821B930B5A
:10033000541710F0CF96089501970895FC01918D00
:10034000828D981761F0A28DAE0FBF2FB11D5D9603
:100350008C91928D9F5F9F73928F90E008958FEFA5
:100360009FEF0895FC01918D828D981731F0828D59
:10037000E80FF11D858D90E008958FEF9FEF0895B0
:10038000FC01918D228D892F90E0805C9F4F821B14
:1003900091098F73992708958BEE92E00E94C00116
:1003A00021E0892B09F420E0822F0895FC01A48D1F
:1003B000A80FB92FB11DA35ABF4F2C91848D90E087
:1003C00001968F739927848FA689B7892C93A0896A
:1003D000B1898C91837080648C93938D848D9813F4
:1003E00006C00288F389E02D80818F7D8083089587
:1003F000EF92FF920F931F93CF93DF93EC0181E075
:10040000888F9B8D8C8D98131AC0E889F98980811B
:1004100085FF15C09FB7F894EE89FF896083E8894E
:10042000F98980818370806480839FBF81E090E040
:10043000DF91CF911F910F91FF90EF900895F62ECD
:100440000B8D10E00F5F1F4F0F731127E02E8C8D67
:100450008E110CC00FB607FCFACFE889F9898081AC
:1004600085FFF5CFCE010E94D601F1CFEB8DEC0FC9
:10047000FD2FF11DE35AFF4FF0829FB7F8940B8FC9
:10048000EA89FB8980818062CFCFCF93DF93EC0133
:10049000888D8823B9F0AA89BB89E889F9898C916C
:1004A00085FD03C0808186FD0DC00FB607FCF7CF28
:1004B0008C9185FFF2CF808185FFEDCFCE010E9428
:1004C000D601E9CFDF91CF91089580E090E0892BAC
:1004D00029F00E94CC0181110E94000080E090E090
:1004E000892B49F080E090E0892B29F00E940000E0
:1004F00081110E94000080E090E0892B49F080E0AB
:1005000090E0892B29F00E94000081110E940000D8
:1005100080E090E0892B49F080E090E0892B29F081
:100520000E94000081110C9400000895282F30E0F3
:10053000F901EE5EFD4F9491F901E453FE4F4491B1
:100540002A573E4FF9012491222309F435C09923FB
:1005500011F191509231F8F4E92FF0E08827EC5432
:10056000FD4F8F4F0C949009E502E902C602DD02AF
:10057000E102CB02EC02F202F602FC0200030403E9
:100580000A030E03CB02120318031C0380918000A0
:100590008F7780938000E22FF0E0EE0FFF1FE45989
:1005A000FE4FA591B4918FB7F894EC91611148C0BA
:1005B00040954E234C938FBF0895809180008F7D8E
:1005C000E8CF80918000877FE4CF84B58F7784BDAA
:1005D000E2CF84B58F7DFBCF8091B0008F77809381
:1005E000B000D9CF8091B0008F7DF9CF809190007D
:1005F0008F7780939000CFCF809190008F7DF9CF3F
:1006000080919000877FF5CF8091A0008F778093B5
:10061000A000C1CF8091A0008F7DF9CF8091A00074
:10062000877FF5CF809120018F7780932001B3CF12
:10063000809120018F7DF9CF80912001877FF5CFB8
:100640004E2BB8CF3FB7F89480917102909172020F
:10065000A0917302B091740226B5A89B05C02F3FEC
:1006600019F00196A11DB11D3FBFBA2FA92F982FD8
:100670008827BC01CD01620F711D811D911D42E0D3
:10068000660F771F881F991F4A95D1F7089520910B
:100690004902260F3327331F21323105ECF4209114
:1006A000C102FC0190E080E0243069F082E008950E
:1006B000A09149022191AC01475D5D4FA40FB52F78
:1006C000B11D2C930196861798F380914902680F0B
:1006D0006093490280E0089581E008951092C1027C
:1006E00081E08093C00210929B0261E084E10E944D
:1006F000960261E085E10E949602E9EBF0E08081DC
:100700008E7F808380818D7F808388E48093B80092
:1007100085E48093BC000895CF93DF9391E090939C
:1007200028028823B9F0C091B800D091BA00809116
:10073000BC008A7B8093BC0060E084E10E9496024A
:1007400060E085E10E9496020E946E03D093BA0099
:10075000C093B800DF91CF9108958F929F92AF928E
:10076000BF92CF92DF92EF92FF920F931F93CF939E
:10077000DF93D091EA02D13208F0D7C0182FC09190
:10078000E9020E9422036B017C018091C102811168
:100790006BC082E08093C1021093C0028FEF809300
:1007A000BF021092BE02D093BD02A9ECB2E0EDE907
:1007B000F2E080E0D81391C010929C0280919C02DC
:1007C000CC0FC82BC0939C0280919B02813009F012
:1007D00088C010929B020E9422036B017C018091D1
:1007E0009C028093BB008091C3029091C402A091AF
:1007F000C502B091C602892B8A2B8B2BA1F00E94D7
:1008000022030091C3021091C4022091C5023091CD
:10081000C6026C197D098E099F090617170728075C
:10082000390708F442C08091BC0083FDD8CF85EC25
:100830008093BC000E9422036B017C018091C10265
:10084000823009F450C08091BF028F3F09F46FC01D
:100850008091BF02803209F46CC08091BF02803366
:1008600009F469C084E026C08091C3029091C4025B
:10087000A091C502B091C602892B8A2B8B2B09F45B
:1008800084CF0E9422038090C3029090C402A09063
:10089000C502B090C6026C197D098E099F098616A3
:1008A0009706A806B90608F070CF8091C2020E9490
:1008B0008C0385E01092C8021092EA021092C702DF
:1008C000DF91CF911F910F91FF90EF90DF90CF902C
:1008D000BF90AF909F908F9008959D9191938F5F5F
:1008E00069CF85EEA5CF8091C3029091C402A091FB
:1008F000C502B091C602892B8A2B8B2B09F49ECF9F
:100900000E9422030091C3021091C4022091C502EB
:100910003091C6026C197D098E099F0906171707C9
:100920002807390708F08ACFC0CF81E0C3CF80E025
:10093000C1CF82E0BFCF83E0BDCF0895E0917A02BE
:1009400080917902E81730F4F0E0E558FD4F80819E
:1009500090E008958FEF9FEF089590917A02809133
:1009600079022FEF3FEF981748F4E92FF0E0E558B0
:10097000FD4F208130E09F5F90937A02C901089576
:100980008091790290917A02891B990B0895CF92F8
:10099000DF92EF92FF920F931F93CF93DF937C012F
:1009A000CB018A012091C702222389F0EB016B0160
:1009B000C40ED51ECC15DD0569F06991D701ED9106
:1009C000FC910190F081E02DC7011995F3CF642FC0
:1009D0000E944703C801DF91CF911F910F91FF90B3
:1009E000EF90DF90CF900895CF93DF931F92CDB714
:1009F000DEB769832091C7022223F9F02091EA0231
:100A0000203258F021E030E0FC013383228390E073
:100A100080E00F90DF91CF9108958091C802E82F78
:100A2000F0E0E753FD4F998190838F5F8093C80278
:100A30008093EA0281E090E0ECCF61E0CE01019684
:100A40000E944703F7CF90E080E0089585ED809302
:100A5000BC008091C3029091C402A091C502B091E4
:100A6000C6020796A11DB11D23E0B695A7959795DF
:100A700087952A95D1F72091BC0024FD03C01092E0
:100A8000C10208954091C3025091C4026091C50211
:100A90007091C602452B462B472B69F30097A105A1
:100AA000B10541F025E32A95F1F700000197A1096E
:100AB000B109E1CF8091C2020C948C031F920F9276
:100AC0000FB60F9211240BB60F922F933F934F93B3
:100AD0005F936F937F938F939F93AF93BF93EF93A6
:100AE000FF938BEE92E00E94D601FF91EF91BF91B0
:100AF000AF919F918F917F916F915F914F913F91B6
:100B00002F910F900BBE0F900FBE0F901F90189556
:100B10001F920F920FB60F9211240BB60F922F93C4
:100B20008F939F93EF93FF93E091FB02F091FC0270
:100B30008081E0910103F091020382FD1DC090814C
:100B4000809104038F5F8F7320910503821741F01A
:100B5000E0910403F0E0E551FD4F958F809304038D
:100B6000FF91EF919F918F912F910F900BBE0F905E
:100B70000FBE0F901F9018958081F2CF1F920F9299
:100B80000FB60F9211242F933F938F939F93AF93A0
:100B9000BF9380916D0290916E02A0916F02B0910F
:100BA000700230916C0223E0230F2D3758F5019627
:100BB000A11DB11D20936C0280936D0290936E0273
:100BC000A0936F02B09370028091710290917202B3
:100BD000A0917302B09174020196A11DB11D809382
:100BE000710290937202A0937302B0937402BF914A
:100BF000AF919F918F913F912F910F900FBE0F90CA
:100C00001F90189526E8230F0296A11DB11DD2CF83
:100C10001F920F920FB60F9211240BB60F922F93C3
:100C20003F934F935F936F937F938F939F93AF9374
:100C3000BF93EF93FF938091B900887F803609F4CA
:100C40004DC008F040C0883209F4A9C028F58031B1
:100C500009F49DC0C8F4882309F4FBC0883009F466
:100C600096C0FF91EF91BF91AF919F918F917F912E
:100C70006F915F914F913F912F910F900BBE0F900D
:100C80000FBE0F901F901895883109F488C08032EC
:100C900041F78093BF0214C0803409F49DC040F432
:100CA0008033B9F38833E9F68093BF0285ECB0C096
:100CB000803509F485C0883509F496C0883489F6F2
:100CC0000E942605CECF883909F48CC038F58837C4
:100CD00029F050F4883611F0803719F683E08093BC
:100CE000C10210926B0257C0883809F47BC080396A
:100CF00019F0803809F0B5CF80916B02803208F08E
:100D000071C0E0916B0281E08E0F80936B02809145
:100D1000BB00F0E0E55BFD4F80833DC0803B39F0D8
:100D2000E0F4803A09F479C0883A09F09ACF84E077
:100D30008093C10210924A0210924902E091770218
:100D4000F091780219958091490281110FC081E0DC
:100D5000809349021092290209C0803C09F4A6CF71
:100D6000883C09F4A3CF883B09F07BCFE0914A028D
:100D700081E08E0F80934A02F0E0E75DFD4F8081B5
:100D80008093BB0090914A028091490229C08091D2
:100D90009C028093BB0085EC8093BC0062CF909155
:100DA000BE028091BD02981758F5E091BE0281E025
:100DB0008E0F8093BE02F0E0E356FD4F8081E9CFB5
:100DC000E091BE0281E08E0F8093BE028091BB0055
:100DD000F0E0E356FD4F80839091BE028091BD020A
:100DE0009817C8F285E8D8CFE091BE0281E08E0F57
:100DF0008093BE028091BB00F0E0E356FD4F8083FC
:100E00008091C00281115CCF81E080939B0284EAD3
:100E10008093BC001092C10224CF85EC8093BC006B
:100E20001092C10280916B02803230F4E0916B022B
:100E3000F0E0E55BFD4F108260916B0270E0E091A5
:100E40007502F09176028BE492E0199510926B0294
:100E500008CF1092BF0234CFEBEEF2E01382128281
:100E600088EE93E0A0E0B0E084839583A683B78307
:100E700024E032E03183208325EC30E0358724877D
:100E800024EC30E03787268720EC30E0318B208B54
:100E900021EC30E0338B228B22EC30E0358B248B3D
:100EA00026EC30E0378B268B118E128E138E148E2B
:100EB000E8E8F3E01382128284839583A683B783E4
:100EC00086E192E0918380830895CF93DF93CDB73D
:100ED000DEB7A1970FB6F894DEBF0FBECDBF7894F2
:100EE00084B5826084BD84B5816084BD85B582602F
:100EF00085BD85B5816085BD80916E0081608093E0
:100F00006E00109281008091810082608093810048
:100F10008091810081608093810080918000816058
:100F2000809380008091B10084608093B1008091B3
:100F3000B00081608093B0008091910082608093C6
:100F40009100809191008160809391008091900048
:100F50008160809390008091A10082608093A100C5
:100F60008091A10081608093A1008091A0008160A8
:100F70008093A00080912101826080932101809163
:100F80002101816080932101809120018160809303
:100F9000200180917A00846080937A0080917A00A9
:100FA000826080937A0080917A00816080937A00D9
:100FB00080917A00806880937A001092C100E0915D
:100FC000FB02F091FC0282E08083E091F702F09155
:100FD000F8021082E091F902F091FA0280E1808338
:100FE00010920303E091FF02F091000386E08083FA
:100FF000E091FD02F091FE02808180618083E091AA
:10100000FD02F091FE02808188608083E091FD0204
:10101000F091FE02808180688083E091FD02F09172
:10102000FE0280818F7D808310927A021092790275
:101030001092C8021092EA020E946E0380E691E0CC
:10104000909378028093770281E691E09093760204
:101050008093750281E08093C70282E58093E90264
:1010600060E088E893E00E94F40464E088E893E09C
:101070000E94F4046AEA88E893E00E94F40481E0A4
:101080000E94AD030E9422034B015C0194E6C92E2D
:10109000D12CE12CF12C0E942203681979098A09CC
:1010A0009B09683E734081059105A8F321E0C21AAF
:1010B000D108E108F10888EE880E83E0981EA11C93
:1010C000B11CC114D104E104F10429F781E080933B
:1010D000C7021092C8021092EA0260E088E893E02A
:1010E0000E94F40464E088E893E00E94F40481E044
:1010F0000E94AD030E9422036B017C018091C1021A
:10110000811163C081E08093C1028093C0029FEF90
:101110009093BF021092BE021092BD0280939C0277
:1011200080919C02846A80939C0280919B02813012
:1011300009F0AEC010929B020E9422036B017C0159
:1011400080919C028093BB008091C3029091C40265
:10115000A091C502B091C602892B8A2B8B2BA1F0DE
:101160000E9422030091C3021091C4022091C50283
:101170003091C6026C197D098E099F090617170761
:101180002807390708F442C08091BC0083FDD8CFFE
:1011900085EC8093BC000E9422036B017C0180914E
:1011A000C102813009F476C08091BE02811194C0E1
:1011B0008091BE02ADE9B2E0EBE7F2E090E0981773
:1011C00051F12D9121939F5FFACF8091C3029091AD
:1011D000C402A091C502B091C602892B8A2B8B2B29
:1011E00009F48CCF0E9422030091C3021091C40223
:1011F0002091C5023091C6026C197D098E099F09A4
:10120000061717072807390708F078CF8091C20220
:101210000E948C0380E010927A028093790288E821
:1012200093E00E94AD04282F30E050E040E019A286
:101230008E010F5D1F4F8AE0C82ED12CE12CF12CBE
:10124000CA01B901A70196010E946E09605DF8010B
:1012500062938F01211531054105510589F73097BA
:1012600061F001900020E9F73197AF01401B510B6D
:10127000B8018BEE92E00E94620142E050E064E22D
:1012800072E08BEE92E00E9462010E946502FDCF47
:1012900085EE7FCF8091C3029091C402A091C502D8
:1012A000B091C602892B8A2B8B2B09F478CF0E9430
:1012B00022030091C3021091C4022091C502309113
:1012C000C6026C197D098E099F09061717072807A2
:1012D000390708F064CF9ACF81E06CCFA1E21A2ED3
:1012E000AA1BBB1BFD010DC0AA1FBB1FEE1FFF1FCA
:1012F000A217B307E407F50720F0A21BB30BE40B1A
:10130000F50B661F771F881F991F1A9469F7609560
:101310007095809590959B01AC01BD01CF0108951A
:10132000EE0FFF1F881F8BBF0790F691E02D1994D9
:04133000F894FFCF5F
:1013340000000000F80162018F014502C0019E0116
:10134400B20100000000F404C70423059D04C00496
:08135400AD049E040D0A000027
:00000001FF
