:100000000C9462000C948A000C948A000C948A0070
:100010000C948A000C948A000C948A000C948A0038
:100020000C948A000C948A000C948A000C948A0028
:100030000C948A000C948A000C948A000C948A0018
:100040000C9402040C948A000C948A000C948A008C
:100050000C948A000C948A000C948A000C948A00F8
:100060000C944C040C948A0000000000230026002D
:10007000290000000008000201000003040700003E
:1000800000000000000000000000250028002B00F8
:1000900000000000240027002A00040404040404D3
:1000A0000404020202020202030303030303010227
:1000B00004081020408001020408102001020408F6
:1000C00010206B0511241FBECFEFD8E0DEBFCDBFDF
:1000D00014E0A0E0B1E0EEE7F3E102C005900D927C
:1000E000AC31B107D9F726E0ACE1B4E001C01D9214
:1000F000AB31B207E1F710E0C2E6D0E004C02197CF
:10010000FE010E946408C136D107C9F70E9482052A
:100110000C94BD090C94000090E0FC01E255FF4FE7
:10012000249186569F4FFC018491882399F090E09A
:10013000880F991FFC01E057FF4FA591B491FC0176
:10014000EA57FF4F859194918FB7F894EC91E22B89
:10015000EC938FBF08950895CF93DF93AC01E091A6
:10016000BC04F091BD043097F1F09091BB048091F4
:10017000BA049817C0F090E0292F30E0261737070F
:1001800054F4D901A15EBB4F240F351FE90128812A
:100190002C939F5FF1CF1092BB046093BA04CB0104
:1001A000DF91CF910994DF91CF910895833081F051
:1001B00028F4813099F08230A9F008958730A9F0B1
:1001C0008830C9F08430B1F4809180008F7D03C005
:1001D000809180008F7780938000089584B58F7719
:1001E00084BD089584B58F7DFBCF8091B0008F775B
:1001F0008093B00008958091B0008F7DF9CF1F9358
:10020000CF93DF93282F30E0F901EE58FF4F849110
:10021000F901E255FF4FD491F901E656FF4FC49121
:10022000CC23A9F0162F81110E94D600EC2FF0E00C
:10023000EE0FFF1FEA57FF4FA591B4918FB7F894C7
:10024000EC91111108C0D095DE23DC938FBFDF91B4
:10025000CF911F910895DE2BF8CF3FB7F89480918E
:10026000B0049091B104A091B204B091B30426B54A
:10027000A89B05C02F3F19F00196A11DB11D3FBFDE
:10028000BA2FA92F982F8827BC01CD01620F711DAD
:10029000811D911D42E0660F771F881F991F4A95A7
:1002A000D1F708958F929F92AF92BF92CF92DF9233
:1002B000EF92FF924B015C010E942D016B017C01CA
:1002C0000E942D016C197D098E099F09683E7340BB
:1002D00081059105A8F321E0821A9108A108B108CF
:1002E00088EEC80E83E0D81EE11CF11C8114910435
:1002F000A104B10429F7FF90EF90DF90CF90BF9059
:10030000AF909F908F90089520916504260F33271A
:10031000331F21323105ECF420918904FC0190E077
:1003200080E0243069F082E00895A0916504219175
:10033000AC014B5B5B4FA40FB52FB11D2C93019605
:10034000861798F380916504680F6093650480E0D8
:10035000089581E008951092890481E080938B04D0
:1003600010928A0461E082E10E94FF0061E083E173
:100370000E94FF00E9EBF0E080818E7F8083808126
:100380008D7F808388E48093B80085E48093BC00EF
:1003900008950895E091BB048091BA04E81730F401
:1003A000F0E0E15EFB4F808190E008958FEF9FEFDA
:1003B00008959091BB048091BA042FEF3FEF9817F6
:1003C00048F4E92FF0E0E15EFB4F208130E09F5FD1
:1003D0009093BB04C90108958091BA049091BB0425
:1003E000891B990B0895CF93DF93CB01EA01642F0A
:1003F0000E948401CE01DF91CF910895CF93DF93C6
:100400001F92CDB7DEB7698361E0CE0101960E94ED
:10041000840181E090E00F90DF91CF91089590E00A
:1004200080E0089508950CB405FC0DC09EBD000049
:100430000DB407FEFDCF9EB58EBD00000DB407FEC6
:10044000FDCF8EB508958EBD00000DB407FEFDCF23
:100450008EB59EBD00000DB407FEFDCF9EB508957C
:100460008EBD00000DB407FEFDCF8EB508958CBD86
:100470009DBD08950F931F93CF93DF938C0160E090
:1004800080E10E94FF0060E081E10E94FF00809116
:100490001506909116060E9437028AE20E943002E9
:1004A00061E081E10E94FF0090E080E00E94130281
:1004B00080EA90E00E94130260E081E10E94FF0068
:1004C0008BE20E94300261E081E10E94FF0090E037
:1004D00080E00E94130280E890E00E94130260E036
:1004E00081E10E94FF008CE20E94300261E081E124
:1004F0000E94FF00C1E8D0E5219721F0C8010E94C9
:100500001302FACF61E080E1DF91CF911F910F914B
:100510000C94FF00CF93DF93E2E7F0E08491EEEAE2
:10052000F0E0D491EAE9F0E0C49170E060E0CC231F
:1005300099F081110E94D600EC2FF0E0EE0FFF1F22
:10054000E859FF4FA591B491EC91ED2391E080E043
:1005500009F490E0692F782F21E0622780E00E9463
:10056000FF0089E096E00E94D901EC0190911E0401
:10057000992361F04091000150910101BE0177275C
:1005800057FF41C070930101609300018A3009F068
:100590004FC0E0911C04F0911D0424E130E0CF0134
:1005A000B9010E943C08281B390B2E0F3F1F3093C6
:1005B0001D0420931C0481E08093030680911C0499
:1005C00090911D0480349140C4F04CE251E067EDFD
:1005D00074E083EC94E00E949809EFEEF5E084E18A
:1005E000DF011D928A95E9F78CE291E090931D045A
:1005F00080931C0481E08093030681E080930806C9
:10060000DF91CF91089594E1969F9001979F300DCF
:100610001124240F351F30931D0420931C042FEF49
:100620003FEF309301012093000110921E04AECFE2
:100630008D3091F4E3ECF4E080E491E0DF019C0183
:100640001D9221503040E1F781E080930306109223
:100650001D0410921C04B2CF8B3121F481E08093F1
:100660001E04ACCF8C2F0C2E000C990B0E9491090C
:10067000892B09F4A3CF80911C0490911D049C0147
:100680002F5F3F4F30931D0420931C048D539B4FCD
:10069000DC01CC9393CFCF93DF9385ED8093BC00A7
:1006A0008091410490914204A0914304B09144048C
:1006B0000796A11DB11D23E0B695A795979587953F
:1006C0002A95D1F72091BC0024FD03C01092890423
:1006D00036C04091410450914204609143047091AE
:1006E0004404452B462B472B69F30097A105B10520
:1006F00041F025E32A95F1F700000197A109B1091E
:10070000E1CF8091400491E090933F048823B9F0B9
:10071000C091B800D091BA008091BC008A7B8093D0
:10072000BC0060E082E10E94FF0060E083E10E9483
:10073000FF000E94AB01D093BA00C093B800DF91D4
:10074000CF910895AF92BF92CF92DF92EF92FF9236
:100750000F931F93CF93DF93CDB7DEB7EE84FF8463
:100760005701C7010E946A088C01DE0150966C0196
:100770009701280F391FFC01E217F30721F08C9134
:1007800012968193F9CF60E080E10E94FF0060E063
:1007900081E10E94FF0080911506909116060E944B
:1007A00037028D850E94300261E081E10E94FF00E6
:1007B000EF28B1F0F80180818EBDF1E0AF1AB108E9
:1007C00059F0F60191810DB407FEFDCF8EB59EBDA7
:1007D000F60181936F01F1CF0DB407FEFDCF8EB509
:1007E00061E080E10E94FF00C8010E940609DF91DC
:1007F000CF911F910F91FF90EF90DF90CF90BF901E
:10080000AF9008951F920F920FB60F9211242F935D
:100810003F938F939F93AF93BF938091BF04909129
:10082000C004A091C104B091C2043091AF0423E090
:10083000230F2D3758F50196A11DB11D2093AF044C
:100840008093BF049093C004A093C104B093C204EA
:100850008091B0049091B104A091B204B091B3041E
:100860000196A11DB11D8093B0049093B104A09393
:10087000B204B093B304BF91AF919F918F913F9118
:100880002F910F900FBE0F901F90189526E8230F01
:100890000296A11DB11DD2CF1F920F920FB60F92DB
:1008A00011242F933F934F935F936F937F938F9375
:1008B0009F93AF93BF93EF93FF938091B900887F8D
:1008C000803609F44AC0F0F5883209F4A7C018F55B
:1008D000803109F49BC0B8F4882309F4F9C088304A
:1008E00009F494C0FF91EF91BF91AF919F918F91C7
:1008F0007F916F915F914F913F912F910F900FBE1C
:100900000F901F901895883109F488C0803251F7F4
:100910008093880414C0803409F49DC040F480336F
:10092000B9F38833F9F68093880485ECB0C080353C
:1009300009F485C0883509F496C0883499F60E9478
:100940004B03D0CF883909F48CC038F5883729F0AB
:1009500050F4883611F0803729F683E080938904BB
:100960001092870457C0883809F47BC0803919F089
:10097000803809F0B7CF80918704803208F071C0C9
:10098000E091870481E08E0F809387048091BB0003
:10099000F0E0E959FB4F80833DC0803B39F0E0F443
:1009A000803A09F479C0883A09F09CCF84E08093BA
:1009B00089041092660410926504E091B604F091E7
:1009C000B70409958091650481110FC081E080937F
:1009D00065041092450409C0803C09F4A6CF883C08
:1009E00009F4A3CF883B09F07DCFE091660481E054
:1009F0008E0F80936604F0E0EB5BFB4F8081809369
:100A0000BB00909166048091650429C08091AE047A
:100A10008093BB0085EC8093BC0064CF9091AD04C3
:100A20008091AC04981758F5E091AD0481E08E0FE9
:100A30008093AD04F0E0E457FB4F8081E9CFE09173
:100A4000AD0481E08E0F8093AD048091BB00F0E097
:100A5000E457FB4F80839091AD048091AC049817CC
:100A6000C8F285E8D8CFE091AD0481E08E0F809385
:100A7000AD048091BB00F0E0E457FB4F8083809190
:100A80008B0481115CCF81E080938A0484EA809397
:100A9000BC001092890426CF85EC8093BC00109294
:100AA000890480918704803230F4E0918704F0E07B
:100AB000E959FB4F10826091870470E0E091B40423
:100AC000F091B50487E694E00995109287040ACF67
:100AD0001092880434CFE9E0F6E01382128288EEA7
:100AE00093E0A0E0B0E084839583A683B78384E09D
:100AF00094E091838083E5E1F6E082E5808381E004
:100B000081830895789484B5826084BD84B58160C2
:100B100084BD85B5826085BD85B5816085BD8091C8
:100B20006E00816080936E00109281008091810040
:100B30008260809381008091810081608093810038
:100B4000809180008160809380008091B1008460FA
:100B50008093B1008091B00081608093B00080915B
:100B60007A00846080937A0080917A00826080931A
:100B70007A0080917A00816080937A0080917A0077
:100B8000806880937A001092C1001092BB0410928A
:100B9000BA041092B9041092B8040E94AB018BEA17
:100BA00090E09093B7048093B6048CEA90E0909321
:100BB000B5048093B40484E18093BA008AE892E09B
:100BC0009093BD048093BC0480E10E948C008FE070
:100BD0000E948C0081E10E948C0080E00E948C00C9
:100BE00081E00E948C0060E080E00E94FF0061E0F4
:100BF00080E10E94FF0061E081E10E94FF0061E06E
:100C00008FE00E94FF00CFB7F8948091BE0481115D
:100C100024C0E4EAF0E08491E8EBF0E09491E82F5E
:100C2000F0E0EE0FFF1FE057FF4FA591B491EC915C
:100C3000E92321F461E08AE00E94FF008AE00E943B
:100C40008C008CB580618CBD8CB580648CBD8DE0D2
:100C50000E948C008BE00E948C008091BE048F5F0C
:100C60008093BE04CFBF60E08FE00E94FF0064E687
:100C700070E080E090E00E94520161E08FE00E940D
:100C8000FF001F921F92C1E0CF930E94A2031F9208
:100C90001F92D1E1DF930E94A2031F9245E0D42E60
:100CA000DF921F92CF931AE31F930E94A2031F9219
:100CB00004E00F931F92CF9386E28F930E94A203CA
:100CC0001F92CF931F92CF9382EF8F930E94A20324
:100CD0001F921F921F921F921F921F921F921F928C
:100CE0001F921F921F92DF931F9284E28F931F9295
:100CF00080E98F931F925AE2F52EFF921F9282E1B4
:100D00008F931F92D0E2DF931F928EE18F931F92F9
:100D10008CE18F931F9265E2C62ECF921F928FE3D4
:100D20008F931F927FE0E72EEF9280EE8F930E94C9
:100D3000A2038DB79EB7C6960FB6F8949EBF0FBE9E
:100D40008DBF1F921F931F921BE21F931F921F9331
:100D50001F92FF921F92CF921F9288E18F931F9252
:100D60008DE38F931F9287EA8F931F9285E18F9374
:100D70001F921F921F92DF921F92DF931F92DF93A9
:100D80001F92DF931F92DF931F92EF9281EE8F935A
:100D90000E94A203EDB7FEB7B1960FB6F894FEBF5E
:100DA0000FBEEDBF1F9288E08F931F928F931F920B
:100DB000D2E0DF9381EB8F930E94A2031F9287E022
:100DC0008F931F92CF9384EB8F930E94A2031F9265
:100DD000DF931F928AE08F931F92DF9380EC8F93B3
:100DE0000E94A2031F92DF931F92CF9381EC8F93F7
:100DF0000E94A2031F928BE58F931F9280E58F9331
:100E00001F92DF9385EC8F930E94A2031F9280E4D0
:100E10008F931F92CF9387EC8F930E94A2038DB77D
:100E20009EB784960FB6F8949EBF0FBE8DBF1F92DB
:100E30008FE78F931F921F921F921F921F921F92F4
:100E40001F920F93FF920E94A2036AEF70E080E06E
:100E500090E00E9452011F928FE98F931F921F9280
:100E60001F921F921F921F921F920F931F930E9417
:100E7000A2031F9280EA8F931F92CF9386E38F93F2
:100E80000E94A2031F921F9289E28F930E94A203E5
:100E90008AE090E00E943A0262E174E083EC94E020
:100EA0000E94AA09C0930806EDB7FEB77E960FB65A
:100EB000F894FEBF0FBEEDBF80910806882309F4A9
:100EC000D0C02FB7F8948091BF049091C004A09136
:100ED000C104B091C2042FBF409104065091050691
:100EE0006091060670910706841B950BA60BB70B45
:100EF000C397A105B10508F4B4C080910306882307
:100F000031F084E090E00E943A021092030633EC44
:100F1000C32E34E0D32EF12CE12CF601C1916F01E8
:100F2000C70164E170E00E943C083B012C010C2EDB
:100F3000000CDD0BCE010E949109892B09F499C0A8
:100F400023E0CC0FDD1F2A95E1F7C85FDF4F83E078
:100F5000660C771C8A95E1F793E0440C551C9A9532
:100F6000E1F71E01F8E02F0E311C6C1A7D0A5301C7
:100F7000AC0EBD1E10E000E0888190E0002E02C0A3
:100F8000959587950A94E2F780FF42C060E080E182
:100F90000E94FF0060E081E10E94FF008091150641
:100FA000909116060E9437028AE20E94300261E0A8
:100FB00081E10E94FF004801840C951CC4010E943D
:100FC0001302C4010E94130260E081E10E94FF004D
:100FD0008BE20E94300261E081E10E94FF00C501C6
:100FE0000E941302C5010E94130260E081E10E9489
:100FF000FF008CE20E94300261E081E10E94FF006C
:101000008FEF9FEF0E94130261E080E10E94FF00DA
:101010000F5F1F4F0830110509F0AECF21962C1637
:101020003D0609F0A4CF8FEFE81AF80A90E4E9161C
:1010300091E0F90609F071CF2FB7F8948091BF04C1
:101040009091C004A091C104B091C2042FBF8093BD
:10105000040690930506A0930606B0930706109227
:101060000806E0E0F0E0EF2B09F426CF0E94000034
:1010700023CFC8E0D1E06BCF97FB072E16F4009486
:1010800007D077FD09D00E94500807FC05D03EF438
:10109000909581959F4F0895709561957F4F089524
:1010A000AA1BBB1B51E107C0AA1FBB1FA617B7078E
:1010B00010F0A61BB70B881F991F5A95A9F78095AA
:1010C0009095BC01CD010895EE0FFF1F0590F4919E
:1010D000E02D09940F931F93CF93DF9382309105F6
:1010E00010F482E090E0E0911906F0911A0630E0E9
:1010F00020E0B0E0A0E0309799F42115310509F423
:101100004AC0281B390B24303105D8F58A819B81D0
:101110006115710589F1FB0193838283FE0111C082
:10112000408151810281138148175907E0F0481727
:10113000590799F4109761F012960C931297139631
:101140001C933296CF01DF91CF911F910F9108959B
:101150000093190610931A06F4CF2115310551F0AA
:101160004217530738F0A901DB019A01BD01DF01E5
:10117000F801C1CFEF01F9CF90931A0680931906B9
:10118000CDCFFE01E20FF31F8193919322503109DD
:1011900039832883D7CF2091170630911806232B47
:1011A00041F42091040130910501309318062093F9
:1011B000170620910201309103012115310541F4F8
:1011C0002DB73EB74091060150910701241B350B06
:1011D000E0911706F0911806E217F307A0F42E1B12
:1011E0003F0B2817390778F0AC014E5F5F4F24178B
:1011F000350748F04E0F5F1F5093180640931706AF
:10120000819391939FCFF0E0E0E09CCFCF93DF9369
:101210000097E9F0FC01329713821282A09119061F
:10122000B0911A06ED0130E020E01097A1F4208182
:101230003181820F931F20911706309118062817CD
:10124000390709F061C0F0931806E0931706DF91A3
:10125000CF910895EA01CE17DF07E8F54A815B8157
:101260009E0141155105B1F7E901FB83EA834991DC
:101270005991C40FD51FEC17FD0761F4808191814E
:101280000296840F951FE901998388838281938157
:101290009B838A83F0E0E0E012968D919C911397F6
:1012A0000097B9F52D913C911197CD010296820FCF
:1012B000931F20911706309118062817390739F621
:1012C000309751F510921A0610921906B09318062D
:1012D000A0931706BCCFD383C28340815181840F72
:1012E000951FC817D90761F44E5F5F4F88819981B8
:1012F000480F591F518340838A819B819383828346
:101300002115310509F0B0CFF0931A06E0931906C4
:101310009ECFFD01DC01C0CF13821282D7CF803275
:1013200009F091110C94B10980528F55D8F70895A6
:101330006817790768F4FB01DC01E40FF51FA40FBF
:10134000B51F02C002900E9241505040D8F7089548
:101350000C94B409FB01DC0101900D920020E1F72F
:101360000895992788270895FB01DC0102C00190A8
:0E1370000D9241505040D8F70895F894FFCFE9
:10137E00FFFF00001B0680000000000000000000C0
:10138E0008080808080008003624120000000000B3
:10139E00143E1414143E1400087E093E483F080003
:1013AE0023131008046462000609090629112E0091
:1013BE000C080400000000000804040404040800E3
:1013CE000810101010100800081C0814000000006F
:1013DE000008083E08080000000000000C08040089
:1013EE000000003E0000000000000000000C0C0099
:1013FE0020101008040402001C222A2A2A221C0093
:10140E00080C0A0808081C001C22201008043E00C4
:10141E001C22201820221C00101814123E1010003E
:10142E003E02021C20221C001C22021E22221C0034
:10143E003E202010080808001C22221C22221C001C
:10144E001C22223C20221C000C0C0000000C0C0064
:10145E000C0C00000C080400100804020408100014
:10146E0000003E003E000000081020402010080042
:10147E001C222018080008001C222A3A3A021C00DE
:10148E001C2222223E2222000E12121E22221E0098
:10149E001C22020202221C001E22222222221E00D6
:1014AE003E02020E02023E003E02020E0202020046
:1014BE001C22023A22221C002222223E222222003A
:1014CE003E08080808083E003E22202020221C006C
:1014DE0022120A060A1222000202020202023E0032
:1014EE00416355494141410022262A2A32322200C7
:1014FE001C22222222221C001E22221E0202020076
:10150E001C2222222A122C001E22221E0A12220025
:10151E001C22021C20221C003E0808080808080095
:10152E002222222222221C0022222222141408000D
:10153E00414141492A2A1400222214081422220071
:10154E0022221408080808003E20100804023E005B
:10155E001C04040404041C000204040810102000DF
:10156E001C10101010101C000814220000000000A7
:10157E000000000000003E00040810000000000003
:10158E000000003C22223C000002021E22221E000D
:10159E000000003C02221C000020203C22223C00C5
:1015AE0000001C223E023C00001824040E0404001D
:1015BE0000003C223C201C00000202021E222200DF
:1015CE000008000C08081C000008001C10120C007B
:1015DE00000404140C14140000060404042418005F
:1015EE00000000162A2222000000001E22222200E5
:1015FE000000001C22221C000000001E221E020001
:10160E000000003C223C20000000001A26020200CE
:10161E0000003C021C201E0000041E0404241800BE
:10162E000000002222223C000000002222140800AA
:10163E0000000041412A1400000000221C2222005A
:10164E00000000223C201C000000003E100C3E005A
:10165E000804040204040800080808080808080022
:10166E00081010201010080000004649310000003C
:10167E0000000000FE01F3010F02C901EC01D901C7
:0C168E00CA015446542052454144590002
:00000001FF
