:100000000C9487010C94B8010C94B8010C94B801BD
:100010000C94B8010C94B8010C94B8010C94B8017C
:100020000C94B8010C94B8010C94B8010C94B8016C
:100030000C94B8010C94B8010C94B8010C94B8015C
:100040000C94B8010C94B8010C94B8010C94B8014C
:100050000C94B8010C94B8010C94B8010C943D0BAD
:100060000C94B8010C94130B0C94E90A0C94B8018D
:100070000C94B8010C94B8010C94B8010C94B8011C
:100080000C94B8010C94B8010C94B8010C94B8010C
:100090000C94BF0A0C94950A0C94B8010C94870B2D
:1000A0000C94B8010C94B8010C94B8010C94B801EC
:1000B0000C94B8010C94B8010C94B8010C94B801DC
:1000C0000C94B8010C94B8010C94B8010C946B0A10
:1000D0000C94410A0C94B8010C94B8010C94B8012A
:1000E0000C94B8010C94B7020C9441060C94FF01D7
:1000F0000C94E4030C9403030C94EA030C94F703AC
:100100000C94C9030C94BD030C94F2030C94D60315
:100110000C94EE030C9440060C9455020C94FE01D2
:100120000C9446020C94C1030C9450060C94F803F2
:100130000C94D2030C94DC030C94E0030C94500355
:100140000C94B7030C946A060C94C5030C94FC033E
:100150000C9497060C9463060C94AB0C0C94CC0393
:100160000C9400020C9469020C94C6060000220054
:10017000250028002B002E00310034000201000071
:10018000050108010B0100002000230026002900C2
:100190002C002F00320000010000030106010901BC
:1001A00000000A0B02090C0D0E08070304010000F1
:1001B000000000000000000000000000000000003F
:1001C00000000000000000000000000012111000FC
:1001D000000000000000000000000000000000001F
:1001E00000000000000000002100240027002A0079
:1001F0002D003000330001010000040107010A0155
:100200000102102020080810204010204080020128
:10021000020108040201010204081020408080400D
:10022000201008040201800402018040201008040C
:1002300002010804020101020408102040800102AA
:100240000408102040800505050507050808080872
:10025000020202020A0A080804040404010101015E
:100260000101010103030303030303030407070759
:100270000C0C0C0C0C0C0C0C0202020206060606FE
:10028000060606060B0B0B0B0B0B0B0B7E306D796A
:10029000335B5F707F7B771F0D3D4F470000000091
:1002A000000000000000000000000000000000004E
:1002B0000000000000000000800180007E306D79A9
:1002C000335B5F707F7B00000000000000771F0D34
:1002D0003D4F475E370000000E0000006700000041
:1002E00000000000000000000000000800771F0D63
:1002F0003D4F4700370000000E00151D670000004D
:10030000000000000000000000000000AB0C112401
:100310001FBECFEFD1E2DEBFCDBF00E00CBF12E0C9
:10032000A0E0B2E0E2E2F6E200E00BBF02C007901C
:100330000D92AE32B107D9F726E0AEE2B2E001C0CD
:100340001D92A83CB207E1F711E0C7E8D1E000E058
:1003500006C021970109802FFE010E940713C638AD
:10036000D10780E00807A9F70E94E90D0C940F134C
:100370000C940000CF93DF93EC019A01AB01E88964
:10038000F98982E08083211581EE38074105510506
:1003900081F160E079E08DE390E00E94D612215077
:1003A0003109410951095695479537952795EC85AF
:1003B000FD851082EE85FF852083188EEC89FD89EE
:1003C00086E08083EA89FB89808180618083EA8975
:1003D000FB89808188608083EA89FB8980818068CD
:1003E0008083EA89FB8980818F7D8083DF91CF9133
:1003F0000895E889F989108220E1D9CF08950895F8
:10040000AF92BF92CF92DF92EF92FF920F931F9322
:10041000CF93DF936C017B018B01040F151FEB0160
:100420005E01AE18BF08C017D10759F06991D60117
:10043000ED91FC910190F081E02DC6011995892B79
:1004400079F7C501DF91CF911F910F91FF90EF9048
:10045000DF90CF90BF90AF900895FC01A089B18943
:100460008C91A689B78982FD0FC09C91818D8F5F89
:100470008F73228D821749F0A18DAE0FBF2FB11D52
:100480005D969C93818F08958C910895FC01538D06
:10049000448D252F30E0842F90E0821B930B54175E
:1004A00010F0CF96089501970895FC01918D828DEB
:1004B000981761F0A28DAE0FBF2FB11D5D968C9184
:1004C000928D9F5F9F73928F90E008958FEF9FEFC3
:1004D0000895FC01918D828D981731F0828DE80F7F
:1004E000F11D858D90E008958FEF9FEF08952FB750
:1004F000F8948091390490913A04A0913B04B09112
:100500003C042FBF8093CF059093D005A093D105D5
:10051000B093D20587EC95E00E94690297FF26C050
:100520002FB7F8948091390490913A04A0913B043C
:10053000B0913C042FBF4091CF055091D005609100
:10054000D1057091D205841B950BA60BB70B40917A
:10055000CB055091CC056091CD057091CE058417E7
:100560009507A607B707B0F28FEF9FEF0895FC013C
:10057000918D228D892F90E0805C9F4F821B910985
:100580008F73992708958DE894E00E94B70221E0C7
:10059000892B09F420E0822F08958AE295E00E94D9
:1005A000B70221E0892B09F420E0822F089587EC1F
:1005B00095E00E94B70221E0892B09F420E0822F08
:1005C0000895FC01A48DA80FB92FB11DA35ABF4FE8
:1005D0002C91848D90E001968F739927848FA68942
:1005E000B7892C93A089B1898C91837080648C9396
:1005F000938D848D981306C00288F389E02D808145
:100600008F7D80830895EF92FF920F931F93CF9376
:10061000DF93EC0181E0888F9B8D8C8D98131AC03D
:10062000E889F989808185FF15C09FB7F894EE8924
:10063000FF896083E889F989808183708064808381
:100640009FBF81E090E0DF91CF911F910F91FF90CC
:10065000EF900895F62E0B8D10E00F5F1F4F0F7374
:100660001127E02E8C8D8E110CC00FB607FCFACF2F
:10067000E889F989808185FFF5CFCE010E94E102EA
:10068000F1CFEB8DEC0FFD2FF11DE35AFF4FF08200
:100690009FB7F8940B8FEA89FB8980818062CFCF66
:1006A000CF93DF93EC01888D8823B9F0AA89BB89A9
:1006B000E889F9898C9185FD03C0808186FD0DC094
:1006C0000FB607FCF7CF8C9185FFF2CF808185FFB5
:1006D000EDCFCE010E94E102E9CFDF91CF910895E5
:1006E00080E090E0892B29F00E94D70281110E94BE
:1006F000000080E090E0892B29F00E94CD0281115A
:100700000E94000080E090E0892B29F00E94C30243
:1007100081110E94000080E090E0892B49F080E088
:1007200090E0892B29F00E94000081110C940000B8
:1007300008958150823108F05AC0E82FF0E08827F0
:10074000EB55FC4F8F4F0C940713C503C903B70338
:10075000BD03C103F703CC03D203D603DC03E003DC
:10076000E403EA03EE03F703F203F803FC038091CA
:1007700080008F77809380000895809180008F7D26
:10078000F9CF80918000877FF5CF84B58F7784BDC6
:10079000089584B58F7DFBCF8091B0008F778093D3
:1007A000B00008958091B0008F7DF9CF80919000C6
:1007B0008F77809390000895809190008F7DF9CF7E
:1007C00080919000877FF5CF8091A0008F778093F4
:1007D000A00008958091A0008F7DF9CF8091A000A6
:1007E000877FF5CF809120018F7780932001089536
:1007F000809120018F7DF9CF80912001877FF5CFF7
:10080000CF93DF93282F30E0F901E056FE4F84911B
:10081000F901E050FE4FD491F901EA5BFD4FC4911C
:10082000CC23A1F081110E949903EC2FF0E0EE0F90
:10083000FF1FEA57FE4FA591B491EC91ED2381E0A3
:1008400090E009F480E0DF91CF91089580E090E09E
:10085000FACF1F93CF93DF93282F30E0F901E056B2
:10086000FE4F8491F901E050FE4FD491F901EA5B0B
:10087000FD4FC491CC23A9F0162F81110E9499033A
:10088000EC2FF0E0EE0FFF1FE459FE4FA591B4915D
:100890008FB7F894EC91111108C0D095DE23DC934A
:1008A0008FBFDF91CF911F910895DE2BF8CFCF93AB
:1008B000DF9390E0FC01E050FE4F24918A5B9D4F56
:1008C000FC0184918823C9F090E0880F991FFC01F6
:1008D000EA51FE4FA591B491FC01E459FE4FC59138
:1008E000D49161110DC09FB7F8948C91209582230B
:1008F0008C938881282328839FBFDF91CF9108950F
:10090000623051F49FB7F8943C91822F80958323F5
:100910008C93E8812E2BEFCF8FB7F894EC912E2B90
:100920002C938FBFEACF3FB7F894809193029091B8
:100930009402A0919502B091960226B5A89B05C09D
:100940002F3F19F00196A11DB11D3FBFBA2FA92F4E
:10095000982F8827BC01CD01620F711D811D911D4B
:1009600042E0660F771F881F991F4A95D1F70895B7
:100970008F929F92AF92BF92CF92DF92EF92FF92AF
:100980004B015C010E9493046B017C010E94930463
:100990006C197D098E099F09683E73408105910598
:1009A000A8F321E0821A9108A108B10888EEC80EC8
:1009B00083E0D81EE11CF11C81149104A104B10450
:1009C00029F7FF90EF90DF90CF90BF90AF909F906E
:1009D0008F90089520916F02260F3327331F213205
:1009E0003105ECF420916304FC0190E080E02430B8
:1009F00069F082E00895A0916F022191AC01415B02
:100A00005D4FA40FB52FB11D2C930196861798F357
:100A100080916F02680F60936F0280E0089581E01B
:100A200008951092630481E08093620410923D0463
:100A300061E084E10E94290461E085E10E942904CB
:100A4000E9EBF0E080818E7F808380818D7F8083E1
:100A500088E48093B80085E48093BC000895CF9328
:100A6000DF9391E090934E028823B9F0C091B800D3
:100A7000D091BA008091BC008A7B8093BC0060E07A
:100A800084E10E94290460E085E10E9429040E941B
:100A90001105D093BA00C093B800DF91CF910895AB
:100AA0008F929F92AF92BF92CF92DF92EF92FF927E
:100AB0000F931F93CF93DF93D0918C04D13208F022
:100AC000D7C0182FC0918B040E9493046B017C0146
:100AD0008091630481116BC082E080936304109362
:100AE00062048FEF8093610410926004D0935F04DE
:100AF000ABE6B4E0EFE3F4E080E0D81391C01092ED
:100B00003E0480913E04CC0FC82BC0933E048091DC
:100B10003D04813009F088C010923D040E94930486
:100B20006B017C0180913E048093BB008091650441
:100B300090916604A0916704B0916804892B8A2B78
:100B40008B2BA1F00E949304009165041091660420
:100B500020916704309168046C197D098E099F0902
:100B6000061717072807390708F442C08091BC0010
:100B700083FDD8CF85EC8093BC000E9493046B0169
:100B80007C0180916304823009F450C0809161043B
:100B90008F3F09F46FC080916104803209F46CC00A
:100BA00080916104803309F469C084E026C080919B
:100BB000650490916604A0916704B0916804892B44
:100BC0008A2B8B2B09F484CF0E94930480906504B8
:100BD00090906604A0906704B09068046C197D0939
:100BE0008E099F0986169706A806B90608F070CFE9
:100BF000809164040E942F0585E010926A0410928F
:100C00008C0410926904DF91CF911F910F91FF9096
:100C1000EF90DF90CF90BF90AF909F908F9008950E
:100C20009D9191938F5F69CF85EEA5CF80916504EB
:100C300090916604A0916704B0916804892B8A2B77
:100C40008B2B09F49ECF0E949304009165041091B0
:100C5000660420916704309168046C197D098E093F
:100C60009F09061717072807390708F08ACFC0CF52
:100C700081E0C3CF80E0C1CF82E0BFCF83E0BDCFB2
:100C80000895E0919D0280919C02E81730F4F0E015
:100C9000E25DFD4F808190E008958FEF9FEF089512
:100CA00090919D0280919C022FEF3FEF981748F49E
:100CB000E92FF0E0E25DFD4F208130E09F5F9093EF
:100CC0009D02C901089580919C0290919D02891B0B
:100CD000990B0895CF92DF92EF92FF920F931F939B
:100CE000CF93DF937C01CB018A01209169042223F9
:100CF00089F0EB016B01C40ED51ECC15DD0569F042
:100D00006991D701ED91FC910190F081E02DC7012F
:100D10001995F3CF642F0E94EA04C801DF91CF91A7
:100D20001F910F91FF90EF90DF90CF900895CF9398
:100D3000DF931F92CDB7DEB7698320916904222328
:100D4000F9F020918C04203258F021E030E0FC01D1
:100D50003383228390E080E00F90DF91CF9108955C
:100D600080916A04E82FF0E0E559FB4F9981908368
:100D70008F5F80936A0480938C0481E090E0ECCFD5
:100D800061E0CE0101960E94EA04F7CF90E080E096
:100D900008951F93CF93DF93162FEC01DF7081E04E
:100DA00080936904892F82958F70880F8065809366
:100DB0008B0410926A0410928C046D2F84E696E0E6
:100DC0000E9497066C2F84E696E00E949706612F9A
:100DD00084E696E00E94970681E0DF91CF911F9113
:100DE0000C945005CF93C6E360E08C2F0E9457040B
:100DF000CF5FC634C9F7C7E160E08C2F0E9457046B
:100E0000CE5FC732C9F760E08AE10E94570460E014
:100E100080E20E94570460E082E20E94570464E688
:100E200070E080E090E00E94B80461E086E1CF913C
:100E30000C942904CF9360E086E10E94290488E1A4
:100E40000E940004892BD9F764E670E080E090E00E
:100E50000E94B804C6E361E08C2F0E945704CF5F64
:100E6000C634C9F7C7E161E08C2F0E945704CE5FFA
:100E7000C732C9F761E08AE10E94570461E080E26D
:100E80000E94570461E082E20E94570461E08AE117
:100E90000E94290461E080E20E94290461E082E26C
:100EA0000E942904CF910895CF93C7E161E08C2F70
:100EB0000E945704CE5FC732C9F7CF910895CF93F0
:100EC000C7E160E08C2F0E945704CE5FC732C9F79C
:100ED000CF910895EF92FF920F931F93CF93C7E1A5
:100EE00010E000E0E82EF12CB701002E02C075954D
:100EF00067950A94E2F761708C2F0E9429040F5FB6
:100F00001F4FCE5FC73281F7CF911F910F91FF9096
:100F1000EF9008950F931F93CF93DF93C7E110E0F5
:100F200000E0D0E08C2F0E940004002E01C0880F4A
:100F30000A94EAF7D82B0F5F1F4FCE5FC73291F7A5
:100F40008D2FDF91CF911F910F910895EF92FF9216
:100F50000F931F93CF93DF938C01D0E0C0E0EE247A
:100F6000E394F12CC7010C2E02C0880F991F0A943C
:100F7000E2F78023912361E0892B09F460E08C2F54
:100F80008A5C0E9429042196C031D10559F7DF916E
:100F9000CF911F910F91FF90EF9008950F931F93A2
:100FA000CF93DF93D0E0C0E010E000E08C2F8A5CAC
:100FB0000E9400040C2E02C0880F991F0A94E2F7C9
:100FC000082B192B2196C031D10581F7C801DF917B
:100FD000CF911F910F910895CF92DF92EF92FF92E0
:100FE0000F931F93CF93DF931F921F92CDB7DEB75E
:100FF00069834A83880F991F0091C6061091C7061E
:10100000000F111FE0E7F6E09F0120573640201740
:10101000310714F41192F8CF2981FC01E059F94FFE
:1010200021838A81808360E08091C4060E94290424
:101030001016110604F501501109F801E059F94F95
:10104000E080D090C206C090C00688E0F82E6E2DD9
:10105000661F6627661F8C2D0E942904EE0C61E036
:101060008D2D0E94290460E08D2D0E942904FA94A0
:10107000F110EDCFDDCF61E08091C4060F900F90AD
:10108000DF91CF911F910F91FF90EF90DF90CF9064
:101090000C942904EF92FF920F931F93CF937C013E
:1010A0008C0183E0000F111F8A95E1F70058194F5A
:1010B000C1E0F80111928F0140E06C2FC7010E943E
:1010C000EC07CF5FC930A9F7CF911F910F91FF9027
:1010D000EF9008952091C6063091C70612161306A8
:1010E0007CF4E62FF0E0E457FD4F4491FC01E05919
:1010F000F94F408B61E0680F90E080E00C94EC07C2
:1011000008951F93CF93DF93EC01162F70E084E0D6
:10111000759567958A95E1F790E080E00E946A08EE
:10112000612F6F7081E090E00E946A08BE0194E038
:10113000769567959A95E1F76F7082E090E00E944E
:101140006A086C2F6F7083E090E00E946A086D2F30
:1011500062956F7084E090E00E946A086D2F6F7056
:1011600085E090E0DF91CF911F910C946A08209167
:10117000C6063091C7061216130684F4E62F660FD2
:10118000FF0BE457FD4F4491FC01E059F94F408BB0
:1011900061E0680F90E080E00C94EC070895CF9236
:1011A000DF92EF92FF920F931F93CF93C92FC295B7
:1011B000CF70CC0FC0658C011F7081E080936904F3
:1011C000C0938B0410926A0410928C04612F84E601
:1011D00096E00E949706602F84E696E00E949706AC
:1011E00081E00E9450050E9493046B017C01809174
:1011F0006304811164C081E080936304809362047E
:101200009FEF909361041092600410925F048093AA
:101210003E0480913E04CC0FC82BC0933E048091C5
:101220003D04813009F081C010923D040E94930476
:101230006B017C0180913E048093BB00809165042A
:1012400090916604A0916704B0916804892B8A2B61
:101250008B2BA1F00E949304009165041091660409
:1012600020916704309168046C197D098E099F09EB
:10127000061717072807390708F442C08091BC00F9
:1012800083FDD8CF85EC8093BC000E9493046B0152
:101290007C0180916304813009F449C0809160042D
:1012A000811167C080916004AFE3B4E0EEE2F2E048
:1012B00090E0981751F12D9121939F5FFACF809183
:1012C000650490916604A0916704B0916804892B2D
:1012D0008A2B8B2B09F48BCF0E9493040091650419
:1012E0001091660420916704309168046C197D099F
:1012F0008E099F09061717072807390708F077CFC7
:10130000809164040E942F0580E010929D028093DA
:101310009C0284E696E00E945006CF911F910F91A7
:10132000FF90EF90DF90CF90089585EEACCF809145
:10133000650490916604A0916704B0916804892BBC
:101340008A2B8B2B09F4A5CF0E949304009165048E
:101350001091660420916704309168046C197D092E
:101360008E099F09061717072807390708F091CF3C
:10137000C7CF81E099CF8F929F92AF92BF920F9388
:101380001F93CF93DF93CDB7DEB7A1970FB6F89435
:10139000DEBF0FBECDBF19A2423008F44AE08E0175
:1013A0000F5D1F4F842E912CB12CA12CA50194010F
:1013B0000E94D612E62FB901CA01EA3044F5E05D79
:1013C000D801EE938D01232B242B252B79F790E068
:1013D00080E0109769F0FD0101900020E9F7319756
:1013E000AF014A1B5B0BBD0187EC95E00E94000238
:1013F000A1960FB6F894DEBF0FBECDBFDF91CF919F
:101400001F910F91BF90AF909F908F900895E95CCE
:10141000D7CF85ED8093BC008091650490916604E0
:10142000A0916704B09168040796A11DB11D23E047
:10143000B695A795979587952A95D1F72091BC00E9
:1014400024FD03C0109263040895409165045091F7
:1014500066046091670470916804452B462B472B06
:1014600069F30097A105B10541F025E32A95F1F74D
:1014700000000197A109B109E1CF809164040C94A7
:101480002F051F920F920FB60F9211240BB60F92D9
:101490002F933F934F935F936F937F938F939F937C
:1014A000AF93BF93EF93FF938DE894E00E94E10226
:1014B000FF91EF91BF91AF919F918F917F916F912C
:1014C0005F914F913F912F910F900BBE0F900FBEE8
:1014D0000F901F9018951F920F920FB60F92112424
:1014E0000BB60F922F933F934F935F936F937F931E
:1014F0008F939F93AF93BF93EF93FF938DE894E007
:101500000E942D02FF91EF91BF91AF919F918F911A
:101510007F916F915F914F913F912F910F900BBEF3
:101520000F900FBE0F901F9018951F920F920FB63D
:101530000F9211240BB60F922F933F934F935F930B
:101540006F937F938F939F93AF93BF93EF93FF938B
:101550008AE295E00E94E102FF91EF91BF91AF9185
:101560009F918F917F916F915F914F913F912F91BB
:101570000F900BBE0F900FBE0F901F9018951F92EB
:101580000F920FB60F9211240BB60F922F933F9329
:101590004F935F936F937F938F939F93AF93BF937B
:1015A000EF93FF938AE295E00E942D02FF91EF9165
:1015B000BF91AF919F918F917F916F915F914F916B
:1015C0003F912F910F900BBE0F900FBE0F901F9069
:1015D00018951F920F920FB60F9211240BB60F920F
:1015E0002F933F934F935F936F937F938F939F932B
:1015F000AF93BF93EF93FF9387EC95E00E94E102D6
:10160000FF91EF91BF91AF919F918F917F916F91DA
:101610005F914F913F912F910F900BBE0F900FBE96
:101620000F901F9018951F920F920FB60F921124D2
:101630000BB60F922F933F934F935F936F937F93CC
:101640008F939F93AF93BF93EF93FF9387EC95E0B6
:101650000E942D02FF91EF91BF91AF919F918F91C9
:101660007F916F915F914F913F912F910F900BBEA2
:101670000F900FBE0F901F9018951F920F920FB6EC
:101680000F9211242F933F938F939F93AF93BF9308
:101690008091390490913A04A0913B04B0913C04AC
:1016A0003091920223E0230F2D3758F50196A11DAA
:1016B000B11D209392028093390490933A04A09331
:1016C0003B04B0933C048091930290919402A091CA
:1016D0009502B09196020196A11DB11D80939302CF
:1016E00090939402A0939502B0939602BF91AF910C
:1016F0009F918F913F912F910F900FBE0F901F9050
:10170000189526E8230F0296A11DB11DD2CF1F9276
:101710000F920FB60F9211240BB60F922F933F9397
:101720004F935F936F937F938F939F93AF93BF93E9
:10173000EF93FF938091B900887F803609F44DC004
:1017400008F040C0883209F4A9C028F5803109F4B6
:101750009DC0C8F4882309F4FBC0883009F496C002
:10176000FF91EF91BF91AF919F918F917F916F9179
:101770005F914F913F912F910F900BBE0F900FBE35
:101780000F901F901895883109F488C0803241F776
:101790008093610414C0803409F49DC040F4803308
:1017A000B9F38833E9F68093610485ECB0C08035E5
:1017B00009F485C0883509F496C0883489F60E94FA
:1017C000090ACECF883909F48CC038F5883729F05A
:1017D00050F4883611F0803719F683E08093630463
:1017E0001092910257C0883809F47BC0803919F0F3
:1017F000803809F0B5CF80919102803208F071C035
:10180000E091910281E08E0F809391028091BB0064
:10181000F0E0EF58FD4F80833DC0803B39F0E0F4AD
:10182000803A09F479C0883A09F09ACF84E080932D
:1018300063041092700210926F02E0919A02F0918C
:101840009B02199580916F0281110FC081E08093F6
:101850006F0210924F0209C0803C09F4A6CF883C69
:1018600009F4A3CF883B09F07BCFE091700281E0BF
:101870008E0F80937002F0E0E15BFD4F80818093DA
:10188000BB009091700280916F0229C080913E044C
:101890008093BB0085EC8093BC0062CF9091600484
:1018A00080915F04981758F5E091600481E08E0FF5
:1018B00080936004F0E0E15CFB4F8081E9CFE09130
:1018C000600481E08E0F809360048091BB00F0E0A3
:1018D000E15CFB4F80839091600480915F049817D6
:1018E000C8F285E8D8CFE091600481E08E0F809344
:1018F00060048091BB00F0E0E15CFB4F808380914D
:10190000620481115CCF81E080933D0484EA80937E
:10191000BC001092630424CF85EC8093BC0010922D
:10192000630480919102803230F4E0919102F0E002
:10193000EF58FD4F10826091910270E0E0919802A3
:10194000F091990281E792E019951092910208CFE7
:101950001092610434CFCF93DF93109290041092D1
:101960008F0488EE93E0A0E0B0E080939104909320
:101970009204A0939304B09394042AE032E030934D
:101980008E0420938D0445ED50E050939A044093CB
:10199000990444ED50E050939C0440939B0440ED27
:1019A00050E050939E0440939D0441ED50E05093CD
:1019B000A00440939F0442ED50E05093A204409352
:1019C000A10446ED50E05093A4044093A304109268
:1019D000A6041092A7041092A8041092A9041092D1
:1019E0002D0510922C0580932E0590932F05A09322
:1019F0003005B093310530932B0520932A054DEC2B
:101A000050E050933705409336054CEC50E050932E
:101A100039054093380548EC50E050933B0540931E
:101A20003A0549EC50E050933D0540933C054AECA3
:101A300050E050933F0540933E054EEC50E05093EC
:101A400041054093400510924305109244051092C1
:101A50004505109246051092CA051092C90580935B
:101A6000CB059093CC05A093CD05B093CE053093D4
:101A7000C8052093C70525EC30E03093D4052093AA
:101A8000D30524EC30E03093D6052093D50520EC27
:101A900030E03093D8052093D70521EC30E0309327
:101AA000DA052093D90522EC30E03093DC05209351
:101AB000DB0526EC30E03093DE052093DD05109247
:101AC000E0051092E1051092E2051092E3051092F4
:101AD0006706109266068093680690936906A09345
:101AE0006A06B0936B068CE192E090936506809352
:101AF0006406C2E0D0E0D093C106C093C00684E083
:101B000090E09093C3068093C20683E090E09093A8
:101B1000C5068093C40681E090E09093C706809349
:101B2000C60661E082E00E94570461E08091C2062F
:101B30000E94570461E08091C4060E94570461E04E
:101B40008091C4060E942904D093C106C093C006A8
:101B5000E0E8F6E0119286E0E03CF807D9F7D0E043
:101B6000C0E08091C6069091C706C817D90774F5E2
:101B700040E06FE0CE010E94EC078091C606909194
:101B8000C706C817D9072CF447E06BE0CE010E94C6
:101B9000EC0740E069E0CE010E94EC078091C606A8
:101BA0009091C706C817D9071CF4CE010E944A08B5
:101BB0008091C6069091C706C817D9072CF440E05B
:101BC0006CE0CE010E94EC072196CBCFDF91CF9144
:101BD0000895789484B5826084BD84B5816084BDA5
:101BE00085B5826085BD85B5816085BD80916E00BB
:101BF000816080936E0010928100809181008260EC
:101C00008093810080918100816080938100809128
:101C100080008160809380008091B1008460809317
:101C2000B1008091B00081608093B00080919100FC
:101C300082608093910080919100816080939100F7
:101C4000809190008160809390008091A1008260DB
:101C50008093A1008091A10081608093A100809178
:101C6000A00081608093A000809121018260809318
:101C700021018091210181608093210180912001C7
:101C800081608093200180917A00846080937A0043
:101C900080917A00826080937A0080917A008160DE
:101CA00080937A0080917A00806880937A00109205
:101CB000C10040E052EC61E070E087EC95E00E94EA
:101CC000BA0140E052EC61E070E08AE295E00E94E7
:101CD000BA0140E855E260E070E08DE894E00E94CF
:101CE000BA01CFB7F89480919702811127C0EBE732
:101CF000F2E08491E5E3F2E09491E82FF0E0EE0F5A
:101D0000FF1FEA51FE4FA591B491EC91E92321F414
:101D100061E085E30E94290461E085E30E945704A5
:101D20008CB580618CBD8CB580648CBD61E084E332
:101D30000E94570461E083E30E9457048091970258
:101D40008F5F80939702CFBF10929D0210929C02EA
:101D500010926A0410928C040E9411058EEF91E09B
:101D600090939B0280939A028FEF91E09093990257
:101D70008093980260E088E10E94570461E086E168
:101D80000E94570460E08AE10E94570460E080E20C
:101D90000E94570460E082E20E94570461E08EE1F5
:101DA0000E94570462E087E00E94570461E088E0E7
:101DB0000E94570461E088E00E94290461E08EE1FE
:101DC0000E94290461E086E10E942904C6E360E0E4
:101DD0008C2F0E945704CF5FC634C9F7C7E160E07B
:101DE0008C2F0E945704CE5FC732C9F78091C60678
:101DF0009091C7061816190634F441E06CE090E0A3
:101E000080E00E94EC078091C6069091C7061816E4
:101E1000190634F44FE06AE090E080E00E94EC079D
:101E20008091C6069091C7061816190624F490E012
:101E300080E00E944A0887EC95E00E945003809160
:101E40007B00877F80937B0080E480937C0080917F
:101E50007A00806480937A0080917A0086FDFCCFBE
:101E60008091780060917900762F682F072E000C02
:101E7000880B990B611571058105910511F00E9480
:101E80009B120E944C1220E030E440E050E00E949F
:101E9000A4126B010E944C1220E031E040E050E0BF
:101EA0000E94A412C62FD62FC6010E94810868EE98
:101EB00073E080E090E00E94B80460E090E080E091
:101EC0000E9481086C2FC6010E94C90668EE73E06B
:101ED00080E090E00E94B804C6010E94CF08C82F9D
:101EE000682FC6010E94810868EE73E080E090E0F0
:101EF0000E94B804DC133EC067E484E090E00E94D6
:101F0000B70860E385E090E00E94B70860E382E0F4
:101F100090E00E94B70864E683E090E00E94B70872
:101F200060ED77E080E090E00E94B804C1E0D2E08C
:101F30001AE000913804002309F49CC00E941A079B
:101F400062E787EC95E00E940303912C812CF12C31
:101F500087EC95E00E94B702892BD1F387EC95E0DE
:101F60000E9455025C018F3FD1F48114910499F0D5
:101F7000F12C1EC062E684E090E00E94B70861E4A4
:101F800085E090E00E94B70864E682E090E00E945D
:101F9000B70860E2C1CFD12CC12C4601D9CF8D3D0D
:101FA00009F466C0FF2021F0843611F7109238043E
:101FB00064012FEFC21AD20AC4010E94A60761E091
:101FC00070E080E090E00E94B8048A2D0E946A07C9
:101FD00061E070E080E090E00E94B80460E08AE197
:101FE0000E94290461E070E080E090E00E94B80463
:101FF00060E082E20E94290465E070E080E090E009
:102000000E94B80461E082E20E94290461E070E06D
:1020100080E090E00E94B80461E08AE10E94290417
:1020200061E070E080E090E00E94B804B50177279D
:102030006095709587EC95E00E94030380913804C9
:102040008111ABCF4AE065E67EE680E090E00E9439
:10205000BB0942E050E06AE272E087EC95E00E9442
:1020600000020E94F206109238040E94700361CFB1
:10207000F02E9ECF00913704002309F49EC00E94E9
:102080001A070E945F0760E080E20E94290460E076
:102090008AE10E942904812C912C540187EC95E05F
:1020A0000E94B702892B09F450C00E947702FC01FC
:1020B00097FD59C08D32910521F0C0970A9708F01D
:1020C0004BC0712CC12CD12C7601E130F105D9F037
:1020D000ED32F10509F445C0CF01C0970A9798F495
:1020E000AAE0B0E0A70196010E94C3126F01FF0FA2
:1020F000EE08FF08C60ED71EE81EF91E80E3C81AB8
:10210000D108E108F10887EC95E00E9455020E9491
:102110007702FC01C0970A97C0F2E130F105A9F2FD
:10212000772041F0F094E094D094C094C11CD11C6D
:10213000E11CF11CD701C6010196A11DB11D01973B
:10214000A140B105A0F010923704809137048111AD
:10215000A5CF0E94F20689CF87EC95E00E94550238
:10216000A4CF702ED0CFC12CD12C7601E3CFFFEFBE
:10217000CF16DF06EF06FF0679F42FEF821A920AD8
:10218000A20AB20AC4010E94A6070E948A07682F09
:10219000C4010E948108D9CFC114D104E104F10423
:1021A000A1F2C6010E94A6070E948A07682FC601F5
:1021B0000E94810846015701C8CF8CE10E940004AB
:1021C000892B09F0ABC00E948A07F82E0E94CE0727
:1021D0008A3AE1F482E20E940004892B09F045CF9B
:1021E000C093690410938B0410926A0410928C04BB
:1021F0006F2D84E696E00E94970681E00E945005CC
:1022000082E20E940004892BD9F32FCF8E3E09F081
:102210004FC082E20E940004892B61F58091360450
:1022200081110EC06F2D70E0709301026093000267
:10223000C093360482E20E940004892BD9F315CFA3
:10224000813061F480910002909101029F29909366
:10225000010280930002D0933604ECCF823051F714
:102260006F2D80910002909101020E94C906109288
:102270003604E0CF80E20E940004892B09F0F5CEFD
:1022800080913604823051F40E94540780910002FC
:10229000909101020E94CF080E946A0780E20E948A
:1022A0000004892BD9F3109236040E945F07DDCE1B
:1022B0008B3A09F0DACE80E20E940004892B09F003
:1022C000D4CE0E945407809134049091350420911B
:1022D00032043091330482179307A1F480E00E9406
:1022E0006A0780913404909135048430914024F041
:1022F000109235041092340480E20E940004892B6D
:10230000D9F3D3CF9C012F5F3F4F309335042093F7
:1023100034048E559D4FFC018081E1CF87EC95E020
:102320000E94B702892B69F087EC95E00E94550264
:10233000803709F05FC0C093380487EC95E00E94B5
:1023400050038DE894E00E94B702892BD1F08DE80C
:1023500094E00E9455022091320430913304A90187
:102360004F5F5F4F50933304409332042E553D4FDF
:10237000F90180834034514024F0109233041092CC
:1023800032042FB7F8948091390490913A04A091C7
:102390003B04B0913C042FBF40919E0250919F029C
:1023A0006091A0027091A102841B950BA60BB70B44
:1023B0008B3F9105A105B10508F457CE0E948A070D
:1023C000082F0E94CE07602F0E9481082FB7F89433
:1023D0008091390490913A04A0913B04B0913C045F
:1023E0002FBF80939E0290939F02A093A002B09370
:1023F000A1023BCE823709F0A4CFC0933704A1CF0E
:102400008F929F92AF92BF92CF92DF92EF92FF9204
:10241000CF93DF93EC01688179818A819B8161157B
:1024200071058105910521F464E279ED8BE597E072
:102430002DE133EF41E050E00E94A41249015A011E
:102440009B01AC01A7EAB1E40E94C3126B017C01BD
:10245000ACEEB4EFA50194010E94D112C60ED71EB6
:10246000E81EF91EF7FE06C081E0C81AD108E1088F
:1024700080E8F80AC882D982EA82FB82C701B601E5
:102480009F77DF91CF91FF90EF90DF90CF90BF903B
:10249000AF909F908F9008958F929F92AF92BF922E
:1024A000CF92DF92EF92FF9260910202709103024D
:1024B00080910402909105026115710581059105D5
:1024C00021F464E279ED8BE597E02DE133EF41E013
:1024D00050E00E94A41249015A019B01AC01A7EAF5
:1024E000B1E40E94C3126B017C01ACEEB4EFA50114
:1024F00094010E94D112C60ED71EE81EF91EF7FEE7
:1025000006C081E0C81AD108E10880E8F80AC09244
:102510000202D0920302E0920402F0920502C70187
:10252000B6019F77FF90EF90DF90CF90BF90AF9074
:102530009F908F900895609302027093030280939E
:102540000402909305020895052E97FB1EF4009453
:102550000E94BB1257FD07D00E94D61207FC03D081
:102560004EF40C94BB1250954095309521953F4FF9
:102570004F4F5F4F089590958095709561957F4F6F
:102580008F4F9F4F08950E94F812A59F900DB49F02
:10259000900DA49F800D911D11240895B7FF0C94F8
:1025A000C3120E94C312821B930B0895A1E21A2E3C
:1025B000AA1BBB1BFD010DC0AA1FBB1FEE1FFF1FE7
:1025C000A217B307E407F50720F0A21BB30BE40B37
:1025D000F50B661F771F881F991F1A9469F760957E
:1025E0007095809590959B01AC01BD01CF01089538
:1025F000A29FB001B39FC001A39F700D811D112444
:10260000911DB29F700D811D1124911D0895EE0F33
:10261000FF1F881F8BBF0790F691E02D1994F89447
:02262000FFCFEA
:10262200FFFF010000000000000003030002460259
:102632005003B702550269020000000097066A06BD
:0E264200C60640066306500641060D0A00005B
:00000001FF
