:100000000C941A010C943E010C943E010C943E0198
:100010000C943E010C943E010C943E010C943E0164
:100020000C943E010C943E010C943E010C943E0154
:100030000C943E010C943E010C943E010C943E0144
:100040000C943E010C943E010C943E010C943E0134
:100050000C943E010C943E010C943E010C94A502BC
:100060000C943E010C943E010C943E010C943E0114
:100070000C943E010C943E010C943E010C943E0104
:100080000C943E010C943E010C943E010C943E01F4
:100090000C943E010C943E010C943E010C943E01E4
:1000A0000C943E010C943E010C943E010C943E01D4
:1000B0000C943E010C943E010C943E010C943E01C4
:1000C0000C943E010C943E010C943E010C943E01B4
:1000D0000C943E010C943E010C943E010C943E01A4
:1000E0000C943E010C94A6010C9496010C94B8015A
:1000F0000C948F010C948B010C9493010C949C0133
:100100000C94E5030C94BC010C94B4010C94AE0166
:100110000C9475010C9487010C94A0010C94AA0115
:100120000C94C6010C94C2010C94700100000A0BDF
:1001300002090C0D0E080703040100000000000076
:1001400000000000000000000000000000000000AF
:10015000000000000000000012111000000000006C
:10016000000000000000000000000000000000008F
:10017000000000002200250028002B002E00310086
:10018000340002010000050108010B0100002100FC
:10019000240027002A002D00300033000101000058
:1001A000040107010A0105050505070508080808F7
:1001B000020202020A0A08080404040401010101FF
:1001C00001010101030303030303030304070707FA
:1001D0000C0C0C0C0C0C0C0C02020202060606069F
:1001E000060606060B0B0B0B0B0B0B0B010210206C
:1001F000200808102040102040800201020108045D
:1002000002010102040810204080804020100804F0
:100210000201800402018040201008040201080449
:10022000020101020408102040800102040810208D
:100230004080E50311241FBECFEFD1E2DEBFCDBF6A
:1002400000E00CBF22E0A0E0B2E001C01D92A136A8
:10025000B207E1F711E0CAE1D1E000E006C0219762
:100260000109802FFE010E945204C931D10780E0AC
:100270000807A9F70E940E030C945A040C9400007E
:10028000282F30E0F901E45DFE4F9491F901E4512B
:10029000FE4F44912A553E4FF9012491222309F43F
:1002A00035C0992311F191509231F8F4E92FF0E023
:1002B0008827E25AFE4F8F4F0C9452048F0193010E
:1002C000700187018B01750196019C01A001A601B7
:1002D000AA01AE01B401B8017501BC01C201C60199
:1002E000809180008F7780938000E22FF0E0EE0F06
:1002F000FF1FEE58FE4FA591B4918FB7F894EC9183
:10030000611148C040954E234C938FBF0895809152
:1003100080008F7DE8CF80918000877FE4CF84B517
:100320008F7784BDE2CF84B58F7DFBCF8091B00005
:100330008F778093B000D9CF8091B0008F7DF9CFB7
:10034000809190008F7780939000CFCF8091900024
:100350008F7DF9CF80919000877FF5CF8091A000AD
:100360008F778093A000C1CF8091A0008F7DF9CFBF
:100370008091A000877FF5CF809120018F778093B7
:100380002001B3CF809120018F7DF9CF8091200192
:10039000877FF5CF4E2BB8CF3FB7F89480910502F9
:1003A00090910602A0910702B091080226B5A89B81
:1003B00005C02F3F19F00196A11DB11D3FBFBA2FF7
:1003C000A92F982F8827BC01CD01620F711D811DB7
:1003D000911D42E0660F771F881F991F4A95D1F73C
:1003E0000895CF92DF92EF92FF920F931F93CF93D6
:1003F000DF931F921F92CDB7DEB769834A83880FC0
:10040000991F00915F0210916002000F111FE9E037
:10041000F2E09F01295032402017310714F4119265
:10042000F8CF2981FC01E75FFD4F21838A8180831A
:1004300060E080915D020E9440011016110604F5F3
:1004400001501109F801E75FFD4FE080D0905B0299
:10045000C090590288E0F82E6E2D661F6627661F31
:100460008C2D0E944001EE0C61E08D2D0E94400118
:1004700060E08D2D0E944001FA94F110EDCFDDCFA8
:1004800061E080915D020F900F90DF91CF911F91FD
:100490000F91FF90EF90DF90CF900C944001EF927E
:1004A000FF920F931F93CF937C018C0183E0000F89
:1004B000111F8A95E1F7075E1D4FC1E0F801119207
:1004C0008F0140E06C2FC7010E94F101CF5FC9305E
:1004D000A9F7CF911F910F91FF90EF900895CF93BF
:1004E000DF93EC0180915F0290916002C817D907F9
:1004F0002CF441E06CE0CE010E94F10180915F029A
:1005000090916002C817D9072CF44FE06AE0CE0141
:100510000E94F10180915F0290916002C817D90793
:100520002CF440E06BE0CE010E94F10180915F026B
:1005300090916002C817D9071CF0DF91CF91089500
:10054000CE01DF91CF910C944F021F920F920FB604
:100550000F9211242F933F938F939F93AF93BF9349
:100560008091010290910202A0910302B0910402D5
:100570003091000223E0230F2D3758F50196A11D7D
:10058000B11D209300028093010290930202A09378
:100590000302B09304028091050290910602A0919B
:1005A0000702B09108020196A11DB11D80930502BA
:1005B00090930602A0930702B0930802BF91AF91F7
:1005C0009F918F913F912F910F900FBE0F901F9091
:1005D000189526E8230F0296A11DB11DD2CF90E0F9
:1005E000FC01E451FE4F24918A559E4FFC018491F9
:1005F000882399F090E0880F991FFC01E457FE4F83
:10060000A591B491FC01EE58FE4F859194918FB75E
:10061000F894EC91E22BEC938FBF0895789484B515
:10062000826084BD84B5816084BD85B5826085BDEE
:1006300085B5816085BD80916E00816080936E007C
:10064000109281008091810082608093810080916E
:10065000810081608093810080918000816080931F
:1006600080008091B10084608093B1008091B000DF
:1006700081608093B00080919100826080939100AE
:1006800080919100816080939100809190008160C1
:10069000809390008091A10082608093A10080915E
:1006A000A10081608093A1008091A000816080936F
:1006B000A00080912101826080932101809121011D
:1006C00081608093210180912001816080932001CD
:1006D00080917A00846080937A0080917A008260B1
:1006E00080937A0080917A00816080937A00809173
:1006F0007A00806880937A001092C100C0E0D0E058
:100700001AEA0BEB9CEC792E90E080E00E946F02DD
:1007100081E090E00E946F0282E090E00E946F0210
:1007200080915F02909160021816190644F41093AC
:1007300019024AEA61E090E080E00E94F1018091B4
:100740005F0290916002029744F0009321024BEB0C
:1007500061E081E090E00E94F10180915F02909160
:100760006002039744F0709229024CEC61E082E051
:1007700090E00E94F1010E94CC014B015C0184E6F3
:10078000C82ED12CE12CF12C0E94CC0168197909DA
:100790008A099B09683E734081059105A8F321E011
:1007A000C21AD108E108F10888EE880E83E0981E8D
:1007B000A11CB11CC114D104E104F10429F7209754
:1007C00009F4A2CF0E9400009FCFCF93DF93C2E035
:1007D000D0E0D0935A02C093590283E090E0909306
:1007E0005C0280935B0224E030E030935E02209351
:1007F0005D029093600280935F0282E00E94EF02AC
:1008000080915B020E94EF0280915D020E94EF02E4
:1008100061E080915D020E944001D0935A02C09332
:100820005902E9E1F2E0119282E0E935F807D9F7DF
:10083000D0E0C0E080915F0290916002C817D907B4
:1008400074F540E06FE0CE010E94F10180915F02FB
:1008500090916002C817D9072CF447E06BE0CE01F5
:100860000E94F10140E069E0CE010E94F101809117
:100870005F0290916002C817D9071CF4CE010E9454
:100880004F0280915F0290916002C817D9072CF443
:1008900040E06CE0CE010E94F1012196CBCFDF91C8
:1008A000CF910895EE0FFF1F881F8BBF0790F69121
:0808B000E02D1994F894FFCF2C
:00000001FF
