:020000040800F2
:100000000040002031830008F12B0008F32B00088A
:1000100000000000000000000000000000000000E0
:10002000000000000000000000000000F52B0008A8
:100030000000000000000000F72B0008F92B00086A
:100040008183000881830008818300088183000880
:10005000818300088183000881830008012C000847
:100060008183000881830008818300088183000860
:100070008183000881830008818300088183000850
:100080008183000881830008818300088183000840
:10009000818300080D2C0008818300081D2C0008B6
:1000A00081830008412C00088183000881830008B7
:1000B000818300088183000881830008512C000897
:1000C00010B5064C2378002B07D1054B002B02D02E
:1000D000044800E000BF0123237010BDEC010020A4
:1000E00000000000649E0008044B10B5002B03D0F4
:1000F0000349044800E000BF10BDC04600000000F6
:10010000F0010020649E000802780B78002A03D0DA
:10011000013001319A42F7D0D01A70470023C25CF7
:100120000133002AFBD1581E7047000003B471460A
:10013000490840004900095E49008E4403BC7047ED
:10014000002243088B4274D303098B425FD3030A16
:100150008B4244D3030B8B4228D3030C8B420DD329
:10016000FF22090212BA030C8B4202D312120902B7
:1001700065D0030B8B4219D300E0090AC30B8B42F5
:1001800001D3CB03C01A5241830B8B4201D38B03A3
:10019000C01A5241430B8B4201D34B03C01A524148
:1001A000030B8B4201D30B03C01A5241C30A8B428B
:1001B00001D3CB02C01A5241830A8B4201D38B0276
:1001C000C01A5241430A8B4201D34B02C01A52411A
:1001D000030A8B4201D30B02C01A5241CDD2C3098C
:1001E0008B4201D3CB01C01A524183098B4201D308
:1001F0008B01C01A524143098B4201D34B01C01AF3
:10020000524103098B4201D30B01C01A5241C3086A
:100210008B4201D3CB00C01A524183088B4201D3D9
:100220008B00C01A524143088B4201D34B00C01AC5
:100230005241411A00D20146524110467047FFE731
:1002400001B5002000F006F802BDC0460029F7D035
:1002500076E770477047C0468446101C62468C465D
:10026000191C634600E0C0461FB501F065F8002880
:1002700001D40021C8421FBD10B500F0AFFF4042BD
:10028000013010BD10B501F057F8002801DB002047
:1002900010BD012010BDC04610B501F04DF800287A
:1002A00001DD002010BD012010BDC04610B500F0DA
:1002B000D1FF002801DC002010BD012010BDC04688
:1002C00010B500F0C7FF002801DA002010BD0120A2
:1002D00010BDC046002B11D1002A0FD1002900D13A
:1002E000002802D00021C943081C07B4024802A11B
:1002F0004018029003BDC0465DFFFFFF03B468468F
:1003000001B5029800F04CF8019B9E4602B00CBC6F
:100310007047C046F0B515042D0C0F0001002E00EB
:10032000C64684460004140C000C090C46434D4399
:10033000604361434019340C241800B5A54203D929
:100340008020400280464144250C6D186146594387
:100350007A43300449192404000C2018891880BC01
:10036000B846F0BD70B500220C4B04000D00FFF73D
:10037000A7FF002804D12000290001F069FE70BD0C
:10038000064B00222000290001F0B2FA01F060FEC5
:1003900080231B069C466044F1E7C0460000E04114
:1003A000F0B557464E464546DE46E0B504000D0022
:1003B0009246994683B08B4230D82DD0494650465C
:1003C00001F0C0FE29000600200001F0BBFE331A38
:1003D0009846203B9B4633D45A4653469340424668
:1003E0001F00534693401E00AF423AD8AF4200D19F
:1003F00078E05B46A41BBD41002B00DA75E00022CB
:1004000000230092019301235A4693400193012354
:1004100042469340009328E08242CFD90022002335
:10042000009201930C9B002B01D01C605D60009832
:10043000019903B0F0BCBB46B246A946A046F0BD48
:10044000424620239B1A5246DA40414613004A4650
:100450008A40170042461F43534693401E00AF4256
:10046000C4D900220023009201934346002BD9D027
:10047000FB0772081A4346467B080EE0AB4201D1E7
:10048000A2420CD8A41A9D41012024196D410021DB
:10049000013E24184D41002E06D0AB42EED9013E5C
:1004A00024196D41002EF8D1009801995B4600197E
:1004B0006941002B24DB2B005A464446D3402A00D6
:1004C000E2401C005B461500002B2ADB26009E4004
:1004D000330026004746BE403200801A9941009002
:1004E00001919FE7A342BCD883E742462023002125
:1004F0009B1A0022009101920122DA40019286E7C4
:10050000424620239B1A2A0046469A402300F34085
:10051000444613432A00E2401C005B461500002BB2
:10052000D4DA42462F002023260097409B1ADE4053
:100530003B003343CDE7C046F0B54F46D64646466E
:100540000D0001001800C0B517002B035A0A4B0F0D
:100550001343CA00914602036E004100520AEC0F99
:100560007D0F1543760D490DC00F8246AC46FF0046
:10057000721A844200D198E0002A00DC81E0002950
:1005800000D1B6E0C9498E4200D172E18021280035
:10059000090408438446382A00DD5EE11F2A00DD95
:1005A000EEE1202039006546801A8740D140854021
:1005B0000D4339004F1EB9416746D7402943DB1B25
:1005C0004A46551AA945894149425B1A984643460D
:1005D0001B0200D4CCE043465B025B0A98464346CC
:1005E000002B00D12CE1404601F08EFD01000839BE
:1005F000202228004346521A8B40D0408D400343AE
:100600008E4200DD17E18E1B721C1F2A00DDA7E160
:10061000202118002E00891A8D408840D640D340F2
:10062000691E8D4130439846002605436B0709D06B
:100630000F232B40042B05D02B1DAB42AD416D4247
:10064000A8441D0043461B0200D494E0974B721C43
:100650009A4200D19DE04146954BED0819400B00B0
:10066000520549075B0229431B0B520D1205134328
:10067000E407234308001900E0BCBA46B146A84687
:10068000F0BD002A43D08A1B002E00D02AE14C4640
:100690001C4300D1D1E1541E012A00D11FE2834D39
:1006A000AA4200D172E2220023E1002A00DC98E095
:1006B000002942D07D498E4200D1DAE08021280015
:1006C000090408438446382A00DD29E11F2A00DC9A
:1006D00087E1110065462039CD40202A04D0402012
:1006E0006146821A91400F4339004F1EB9410D43B4
:1006F0001BE12900394300D1B5E0511E012A00D188
:10070000ABE16A48824200D1B2E10A0043E769499D
:10071000751C0D4200D0CFE0002E00D093E1494679
:10072000194300D1D1E16146394300D0E3E14946A4
:100730005807C9080143DB0826E02900394300D1E6
:1007400091E0511E012A05D05848824200D18FE124
:100750000A00B8E73D004D444D4589416344984641
:1007600049428844434602261B0200D5EBE0013E85
:100770006B0700D05CE74346E9085A071143320093
:10078000DB084A48824221D01B0352051B0B520D45
:100790006CE70023002169E72A003A4369D04A4602
:1007A0005807D108DA0880231B0308431A4207D0F0
:1007B0002900ED081D4203D12A00FF0848073843ED
:1007C000430FC1005B07C908194313000A001A430D
:1007D00000D113E28022120313431B03334A1B0B85
:1007E00044E7002A4BD08A1B002E00D1E7E02F48B7
:1007F000814200D195E1802000040343382A00DDC6
:1008000043E11F2A00DDDBE120201D004E46801A57
:100810008540D64035434E4686403000D340461E84
:10082000B0419C440543ED19BD429B415B4263448A
:1008300098460E007FE01E4A761A13409846F5E669
:10084000280001F061FC010018311F2900DCCFE60F
:100850002B00083883400025D2E662463A43110057
:100860004F1EB941ACE649465807C9080143DB08A9
:1008700087E749465A07C9081143DB08A6E70D492F
:10088000701C084200D0BBE0002E00D014E14946A5
:10089000194300D175E12900394300D07EE1494672
:1008A0005807C9080143DB086EE7C046FF07000090
:1008B000FFFF7FFFFE0700004946CD1B6146581A27
:1008C000A94589414942884601004046091A88469F
:1008D000090200D5A6E04146294300D07FE6002367
:1008E000002451E7C74CA14200D1C7E08024240472
:1008F0002343382A54DC1F2A00DDCCE0202448465C
:10090000A41A1D004E46A040D640A5400400D34086
:1009100062463543661EB441D31A9C46254344E0E3
:1009200062463A4315006F1EBD414D444D45894115
:1009300049428846984443461B0200D418E7B14B0D
:1009400001369E4249D04246AF4B01211A40130066
:100950006A080D401543D9075B0898460D4365E6C4
:1009600018001F3EF040202A03D040218A1A9340ED
:100970001D43691E8D410023002698460543F7E676
:10098000110065462039CD40202A04D04020614620
:10099000821A91400F4339004F1EB94129430FE697
:1009A0004A4613431D006B1E9D417D1BAF429B4178
:1009B00062465B42D31A984654460E0007E6484604
:1009C000184300D1B3E0501E012A00D10DE18D4D36
:1009D000AA4200D1A5E0020010E732000023002166
:1009E00044E620213800891A65468F408D40D0406A
:1009F000791E8F4105433D436746D740DB1994E795
:100A0000804A904200D1ECE0390049444945924186
:100A1000634452429B18DD0749085B08984606006C
:100A20000D43A5E64A46BD1AAF4289416246494296
:100A3000D31A5B1A98465446D1E56C07F90821434E
:100A4000EB0804009DE64A461A4375D161463943D6
:100A500014D1802300241B03BCE64A46D51BA945BC
:100A60008941624649429B1A5B1A98460126AEE5C7
:100A70004A46D1085A071143DB08A7E66346F9083E
:100A80005A0754461143DB08A0E64A4613431D00AB
:100A90006B1E9D41C7E614001E00203CE640202A44
:100AA00005D04024A21A93404A461A4391464D4627
:100AB0006B1E9D41354378E74A461A4300D06BE6EA
:100AC0006B07F9081943EB0880E66146394354D0B7
:100AD0006346F9085C072143DB08040054E64A46F4
:100AE000BD1AAF42894162464942D31A5B1A984601
:100AF000040001266BE54A46D51BA945894162469B
:100B000049429A1A521A9046120232D54A46BD1AE2
:100B1000AF42894162464942D31A5B1A98460400A3
:100B200084E56346F9085A071143DB084EE6F908E5
:100B300068070143EB0824E662463A4300D198E691
:100B40004A46D1085A071143DA0880231B031A4288
:100B500008D06046C5081D4204D154462A00F90851
:100B6000430719434B0FC9005B07C908194313001A
:100B70002CE64146294300D0FAE500230A00002470
:100B800002E66B07F9081943EB08FDE56346F9082F
:100B90005B07194363460400DB0817E63D004D443C
:100BA00063444D45894198464942884443461B0267
:100BB00000D4DDE54246144B01261A409046D7E5A5
:100BC00010001E002038C640202A05D04020821A7E
:100BD00093404A461A4391464D466B1E9D4135430C
:100BE00021E602000023002140E54A46D519BD4216
:100BF00089416344984649428844B3E50021014A4B
:100C00000B0033E5FF070000FFFF7FFFF0B55746FD
:100C10004E464546DE46E0B5814605000C034800D9
:100C200092461F0085B0240B400DCE0F002859D0EE
:100C3000874B984200D198E06B0FE4001C4380235F
:100C40001B0423439846834BED009B4600239946A3
:100C5000834400933C037B005046240B5B0DFF0F45
:100C6000002B67D07A4A934218D07A49420F8C46BB
:100C7000E40059461443802263441204CB1A1443FF
:100C80009B46C200002033007B409A464B460F2B08
:100C900000D9EFE070499B00CB589F466F4B5246FE
:100CA0009C462243E344002A00D095E049460223B3
:100CB0001943894600240220E5E70023002400258B
:100CC00052461B052343D20713432800190005B0E1
:100CD000F0BCBB46B246A946A046F0BD00240025A4
:100CE0005B4BEDE74B462343984600D189E0002C4F
:100CF00000D1E0E1200001F007FA010002000B3909
:100D00001D235B1A49461000D940083884400B0067
:100D10004D4623439846854051483C03831A9B46E1
:100D20000023994600937B005046240B5B0DFF0F78
:100D3000002B97D15246224355D0002C00D1CAE156
:100D4000200001F0E1F902000B3A1D2301009B1A7B
:100D500052460839DA408C40144352468A40414B8F
:100D600058449B46834400208DE74B4623439846D6
:100D700040D108239946063B00258346009369E746
:100D8000B246009B022BA9D0032B00D111E2012B0C
:100D900093D0354A5A44002A00DC3CE16B0700D06E
:100DA000A7E1ED084346DB0106D542462F4B1A402A
:100DB00090468022D2005A442D4B9A428EDC434604
:100DC000520558075C020543240B530D78E7BA46D9
:100DD000A04615000090D4E74A4603231A439146E3
:100DE000032052464FE74946012319438946002410
:100DF000012048E70C239946093BA046834600930F
:100E000028E70423994600239B46013300250093DD
:100E100020E7002380249A4600250D4B24034FE74A
:100E2000802341461B03194208D01C4206D11C43B3
:100E30002403BA461500064B240B41E780244346A1
:100E400024031C432403B246014B240B38E7C0465D
:100E5000FF07000001FCFFFF7C9E000801F8FFFF78
:100E60000DFCFFFFF3030000FF030000FFFFFFFE88
:100E7000FE070000444500D216E100D111E1012334
:100E80005B429C462E0040460025E3442302140E9C
:100E90001C431B0C994623041F0C12024946009266
:100EA0000197FFF7D3F902007A430B04310C804617
:100EB00019438A420BD901235B429C460919E0443D
:100EC0008C4204D88A4202D9831E98460919881A8E
:100ED0004946FFF7BBF909048C4631046646019A7E
:100EE000090C4243030031438A4204D90919013BEA
:100EF0008C4200D811E1891A4246009E12041A431E
:100F0000330C1F00100C9046029313043204160C8D
:100F100032001B0C5A4303967B4346437843170C1D
:100F2000BC469B1963449E4203D980267602B44690
:100F300060441E0C301816041B04360C9E198142A6
:100F400000D29CE000D197E0AE1B091AB542804167
:100F50004042081A844200D111E14946FFF776F970
:100F6000019A0B044243310C050019438A4207D908
:100F70000919013D8C4203D88A4201D9851E0919FD
:100F8000881A4946FFF762F909048C46310466461F
:100F9000019A090C4243030031438A4207D90919D7
:100FA000013B8C4203D88A4201D9831E0919039E52
:100FB000891A32002D041D43029F2B041B0C5A4337
:100FC0007B439C46280C4643130CB444634478434B
:100FD0009E4203D980267602B44660441E0C120459
:100FE0001B04120C30189B18814206D302D0012337
:100FF0001D43CEE6002B00D1CBE661186E1EA14248
:1010000000D2A4E0814200D2C9E000D1D9E035008D
:10101000EDE701256D420121891A382900DD4CE6F2
:101020001F2900DC7FE01F235B429A1A4346D3400E
:10103000202904D04446654A5A44944025436A1EF8
:10104000954107222B43150000241D401A4200D170
:10105000A1E00F2200241A40042A00D198E01A1DB2
:101060009A429B415B42E4181300220200D48FE0B5
:1010700001230024002523E6B54200D364E743465C
:101080005A1E009B9C4665441F009D429B415B424B
:101090001B19C9188C423AD2884263D860D0904656
:1010A00052E7AA4200D9EAE64346DE0758086B0831
:1010B0001E43ED07EAE6484601F026F8010002006B
:1010C000153120321C2900DC1AE64B4608388340D3
:1010D0000025984620E601F017F803001A001532A3
:1010E00020301C2A00DC30E65446083B00229C409D
:1010F00035E60F232B40042B00D152E605235B423B
:10110000AB429B4104355B42ED0898444AE68C4271
:10111000C5D1AF42C0D9904616E78A4200D8EAE668
:10112000831E0919E7E62A4A28005A444346954097
:101130009340C8406A1E9541444603432B43CC402C
:101140005A0792D00F221A40042A88D18DE7350021
:10115000814200D04BE7009A934200D047E718E65F
:10116000AE429CD902235B429C46009BE0449C46D5
:1011700065449D429B415B421B19C918E4E6154A30
:101180005A44002A00DC44E701230025984409E67C
:1011900065076402240BDB081D43002390E5009ED5
:1011A000023D7200B242BF417F423C1909190092D0
:1011B000CEE78024434624031C432403064B240B20
:1011C0007EE5009A9A42EAD33500C4E73E04000067
:1011D0001E040000FF030000FF070000F0B54F46AB
:1011E0004646D646944691461A03120B184DC0B592
:1011F0004C000F0392465A00060080463F0B012028
:10120000640DC90F520DDB0FAC420AD0AA4203D0C5
:10121000944201D157450DD0E0BCBA46B146A8462C
:10122000F0BD3D003543F7D1A242F5D152466546A7
:101230002A43F1D10120C845EED1994206D0002CB5
:10124000EAD13E433000461EB041E5E70020E3E727
:10125000FF070000F0B54E4645465746DE460400FF
:101260001800E0B516001B031B0B324D0F034A009C
:1012700099464300A446B0463F0B520DC90F5B0D83
:10128000C00FAA4229D0AB4218D0002A2AD13C4331
:10129000A34665426541002B02D14C46264327D028
:1012A000002D15D1814228D0022001390840013893
:1012B000F0BCBB46B246A946A046F0BD4D462E4303
:1012C0002FD1002AEED13C4365426541002DE9D083
:1012D0000028EDD101204042EAE73D00254320D11E
:1012E0009342EBD0002BDDD14C462643DAD1DBE72D
:1012F0005B460020002BDBD0D6E79A420ADCE7DB16
:101300004F45D1D810D000204F45D1D20029E1D08F
:101310000800CDE7434258410223404218400138BB
:10132000C6E702204042C3E7C445BDD80020C445FB
:10133000BED2EBE7FF070000F0B54E4645465746E4
:10134000DE4604001800E0B516001B031B0B314DF0
:101350000F034A0099464300A446B0463F0B520D86
:10136000C90F5B0DC00FAA4211D0AB4214D0002AA6
:101370002FD13C43A34665426541002B14D14C4616
:10138000264311D15B460020002B17D010E03D0012
:10139000254312D193421CD14D462E430DD1002A34
:1013A00004D13C4365426541002D0DD1814216D0E8
:1013B000022001390840013800E00220F0BCBB46A1
:1013C000B246A946A046F0BD0028F7D10120404210
:1013D000F4E7002BEAD14C462643E7D1E8E79A42EE
:1013E00006DD434258410223404218400138E5E7F8
:1013F0009A42E9DB4F45DBD806D000204F45DDD2CD
:101400000029E3D00800D9E7C445D1D80020C4455D
:10141000D4D2F5E7FF070000F0B557464E464546E3
:10142000DE46E0B598460C034B000600924687B0B6
:10143000240B5B0DCF0F002B6CD0DD4A934200D103
:1014400086E0420FE4001443802212041443D94A78
:10145000C500944663440093002399469B46434647
:1014600042461E03D20F5B0050469046360B5B0D82
:1014700000D178E0CE4A93421DD0CE49420F8C462F
:1014800000996344F6008C46164380229C44120463
:1014900063461643C2000020009300994346013181
:1014A0008C4649467B4001930F2900D97EE0C24B10
:1014B000890059588F465246009B324300D056E16E
:1014C000BB4900268C4663444946009302231943D6
:1014D00089460220E1E74346019334001500834624
:1014E0005B46022B5ED0032B00D1F3E1012B00D031
:1014F00018E1002200240025019B12052243DB078E
:101500001A432800110007B0F0BCBB46B246A946FA
:10151000A046F0BD2500054300D141E1002C00D1DB
:10152000ADE1200000F0F0FD010002000B391D23A9
:1015300010005B1A3100350008388440D9408540DE
:101540000C439E48831A0093002399469B4686E7E6
:101550000500254300D01CE108220093022300244B
:1015600091469B467BE75246324300D10AE1002E6A
:1015700000D176E1300000F0C7FD02000B3A1D23D8
:1015800001009B1A52460839DA408E4016435246F3
:101590008A40009B8949181A03008C466344002046
:1015A00000937AE700240025814AA5E72F0C2D043B
:1015B0002D0C2B00110C1204120C534398461300EF
:1015C00028007B43994648434844834640460B00E5
:1015D000000C824658467B4350440293814506D90D
:1015E0009A4680235B029946CA4453460293030CF1
:1015F0009B4643461B0400041B0C984603004344CF
:101600000493330C99462B003604360C73439846EA
:1016100033007B439A464B465D435F434346554404
:10162000180C4019824503D980235B029A4657441F
:10163000050CEB19059343461D042D0C00044019BD
:10164000250C2404240C270057436A4390462A00A3
:101650003B0C9A464A436143414451448344884584
:1016600003D980235B02984642443F040B0C3F0C95
:101670000904C919270098464B4677435C436E43DB
:101680005D433B0C9946A4194C4442440395A64241
:1016900004D980235B02984645440395029B3F048E
:1016A0005B441E008342804123049846059B3F0C07
:1016B0004744984676188E428941474440423D1837
:1016C000A846934649428A46C3449F42BF4180454B
:1016D0008041039BDA449846534640427F42074389
:1016E000240C934592418A4589413F19DC0D049BA6
:1016F00075021D43681E85415346524249420A43C2
:10170000BF184744F60D7F0235435A023C43154348
:10171000FB0100D4C1E001216A080D401543E20736
:101720001543640826496144002956DD6B0709D03A
:101730000F222A40042A05D02A1DAA42AD416D423B
:1017400064191500E30104D580211E4AC900144024
:1017500061441D4A914200DD24E76207ED086402FE
:1017600049051543240B4A0DC6E60197B8E6104A11
:101770000320944663444A46009303231A43914648
:1017800052468AE64946012319438946002601202C
:1017900083E60C2200930323050091469B465EE6F8
:1017A0000423994600230093013300249B4656E608
:1017B000FF07000001FCFFFFBC9E00080DFCFFFFBF
:1017C000FF030000FFFFFFFEFE0700000023802450
:1017D0000025444A019324038EE60120401A38284C
:1017E00000DD86E61F285BDD1F2223005242511ACE
:1017F000CB401900202803D03B4A62449440254343
:101800006A1E95412A000A4307210D000024154055
:1018100011425BD00F2100241140042953D0111D27
:10182000914292415242A4180A0023024BD5012250
:101830000024002560E680231B031C4209D01E42C1
:1018400007D133431C0343461500240B254A01935B
:1018500052E68022120314432403224A240B0197E8
:101860004AE600F051FC03001A00153220301C2A11
:1018700000DC84E65646083B00229E4089E600F0E4
:1018800043FC01000200153120321C2900DC4EE629
:10189000340008380025844053E6009B9C4641E70D
:1018A0001249220061442E008D408A40C640691EC4
:1018B0008D4132432A43C4405307B6D00F21114013
:1018C0000429ACD1B1E765076402240BD2081543A3
:1018D000002211E68022120314432403014A240B40
:1018E0000AE6C046FF0700003E0400001E04000098
:1018F000F8B557464E464546DE460400E0B51F00A3
:1019000010000B03620F4E00CD0F5B0A3903134327
:10191000490AE200440F2143C24C91469246C0005E
:101920007A008046760D520DFF0FA24200D1B4E03E
:1019300001246740BB46BD4200D188E0B41AA446EA
:10194000002C00DCB2E0002A00D1C5E0B54A964286
:1019500000D18BE28022120411436246382A00DD56
:10196000A1E11F2A00DD16E220270C00BF1ABC40AF
:101970000200A0466446B840E240444614430200D8
:10198000501E82416046C14022435B1A49468C1A70
:10199000A145924152429B1A984643461B0200D4ED
:1019A00017E143465B025B0A98464346002B00D191
:1019B0006CE1404600F0A8FB0200083A202120001C
:1019C0004346891A9340C84094400343964200DD41
:1019D00057E1961B711C1F2900DDCBE12022180066
:1019E0002600521A94409040CE40CB40621E944153
:1019F0003043984600260443630709D00F23234051
:101A0000042B05D0231DA342A4416442A0441C0022
:101A100043461B0200D4DFE0824B01369E4200D1D8
:101A2000FBE04246804BE4081A4013007105520760
:101A30005B0222431B0B490D0905ED07194329439E
:101A40001000F0BCBB46B246A946A046F8BDB41A89
:101A5000A446002C58DD002A00D19EE0714A96422F
:101A600000D13BE18022120411436246382A00DD96
:101A7000C1E01F2A00DCBBE10C00203AD440220068
:101A80006446202C04D040273F1BB94008438046C1
:101A90004446611E8C411443B1E00C0004432AD03B
:101AA000BB46BD422DD0614CA446B4446446002CD4
:101AB0005CD0941BA446002E00D015E14D461D437A
:101AC00000D1C3E1651E012C00D10CE2554EB44299
:101AD00000D1F8E1AC460EE10A00024300D136E144
:101AE0002200013A012C00D1C6E14E4CA44500D1A0
:101AF000F4E0944631E701246740BB46BD4200D084
:101B00001CE74A4CA446B4446446002C00D1CFE004
:101B1000941BA446002E00D15CE1424EB24200D19B
:101B2000ECE18026360433436446382C00DDB3E113
:101B30001F2C00DD38E22026361B1C00B4404F4627
:101B4000A0466446E74044463C434F46B7403E000B
:101B5000771EBE4134436646F340C91824188442B8
:101B60009B415B429846160088444EE0304A741C04
:101B7000144200D0D6E04A461A43002E00D05BE162
:101B8000002A00D1A5E10A00024300D0BBE14A4689
:101B90005907D2080A43DB0827E00A00024300D1B4
:101BA00074E12200013A012C05D01E4CA44500D15D
:101BB00094E0944659E74844484592415B1898465A
:101BC000040052429044434602261B0200D5C4E062
:101BD000013E630700D011E74346B4465907E208C7
:101BE0000A43DB080F498C4540D061461B03490579
:101BF0001B0B490D20E701430C00611E8C414C4436
:101C00004C45924152429046984443461B02E0D5CF
:101C1000044B01369E4200D09FE031000023002299
:101C20000AE7C046FF070000FFFF7FFF01F8FFFF44
:101C3000FE070000002A00D160E10A0002434DD0F7
:101C40004A465C07D20822438024DB08240323424F
:101C500007D0CE08264204D15D463300C2084907AA
:101C60000A43510FD200D20849070A431100194311
:101C700000D1C8E1802109030B431B03D5491B0B8D
:101C8000DAE6D549B61A0B409846B5E6200000F0D2
:101C90003BFA020018321F2A00DC8FE623000838C6
:101CA0008340002492E608430200501E82416DE604
:101CB000CA4C721C224200D0ADE04A461A43002EA4
:101CC000B8D1002A00D158E10A00024300D059E1FE
:101CD0004A465907D2080A43DB0886E74A465907AD
:101CE000D2080A43DB08C1E7BA4DAA4200D11EE17F
:101CF00080252D042B436446382C5DDC1F2C00DD31
:101D0000D0E0202567462D1B4E461C00FE40AC400F
:101D100034434E46AE403500FB406E1EB541C91AF5
:101D20002C434EE04A46141AA14592415242904635
:101D30005F1A3A004746D21B9046120200D58BE04C
:101D40004246224300D030E6002300254DE74A46B4
:101D50005907D2080A43DB0844E742469E4B610814
:101D60001A401300012214400C43DA075B0898461E
:101D7000144341E61A001F3EF2401600202903D00A
:101D80004022511A8B401C43621E9441002334436D
:101D9000984600261DE70C00203AD44022006446F5
:101DA000202C04D040273F1BB940084380464446BE
:101DB000611E8C412243E9E54C4623431C00631E0F
:101DC0009C41041BA0429B415B42CB1A98465D4656
:101DD0001600E2E54E461E4300D1AEE0661E012C21
:101DE00000D1FDE07B4FBC4200D107E1B4469BE649
:101DF00064462022121B0C00944007009040A0462D
:101E00006446421E90416246E7404446D1403C430E
:101E100004435B18F3E66F4CA24200D1D5E048447E
:101E20005B184845894149425B18DC0740085B085C
:101E3000984616000443CCE6002A00D082E00A004F
:101E4000024340D1802300251B0313E74B07C20840
:101E50001A435D46CB08C5E64A46841AA042924121
:101E6000CB1A52429B1A98465D469EE54A46590750
:101E7000D2080A43DB08F9E64A46141AA145924102
:101E80005B1A52429B1A9846012686E54A46590734
:101E9000D2080A43DB08A5E64C4623431C00631E18
:101EA0009C415BE665461E00203DEE40202C05D09F
:101EB00040252D1BAB404C461C43A2465446631E96
:101EC0009C4134437DE74B07C2081A435D46CB086B
:101ED000CCE60A00024300D136E74B07C2081A439A
:101EE0005D46CB0881E64A46841AA0429241CB1A4D
:101EF00052429B1A98465D4601264EE54B07C208A2
:101F00001A43CB08B2E64A46141AA14592415F1A19
:101F10005242BA1A904612026BD54A46841AA0421F
:101F20009241CB1A52429B1A98465D4664E54B0794
:101F3000C2081A435D46CB0898E64B07C2081A430D
:101F4000CB084FE60A00024390D04A465C07D2080D
:101F500014438022DB081203134208D0CE08164235
:101F600005D1C0084907084304005D463300610FEE
:101F7000E2004907D2080A4378E64B07C2081A4331
:101F8000CB0832E648445B18484592419846524295
:101F90009044434604001B0200D41AE642460E4B0E
:101FA00001261A40904614E666461F00203EF74080
:101FB000202C05D04026361BB3404C461C43A2467D
:101FC0005446631E9C413C43C8E511000023002297
:101FD00032E5C046FF070000FFFF7FFFFE0700005D
:101FE0004A461418844292415B18984652429044E3
:101FF000E9E54246224300D1A6E6EAE54B07C208DE
:102000001A43CB0832E600220149130014E5C0460A
:10201000FF07000070B505000C480C0316004900CE
:102020001A035B00240B490D120B5B0D814208D093
:10203000064900208B4203D132431000421E9041DA
:1020400070BD01202C43FBD1F2E7C046FF07000022
:102050000A0030B5134C530009030500090B00209A
:102060005B0DD20FA34204DD0F48834202DD0F4B0C
:10207000D01830BD8020400301430D48C01A1F28EE
:1020800008DD0C48C31AD9400B005842002AF0D191
:102090001800EEE7084CC540A446634499400B0085
:1020A0002B43F2E7FE0300001D040000FFFFFF7F4B
:1020B0003304000013040000EDFBFFFF10B5041E05
:1020C00010D000F021F80F4B1B1A0A2811DC0B224C
:1020D0002100121AD14015300A035B058440120B0F
:1020E0005B0D01E0002300221B05134320001900B3
:1020F00010BD22000B3882405B0512030024120B36
:102100005B0DF1E71E0400001C2101231B04984213
:1021100001D3000C10391B0A984201D3000A083978
:102120001B09984201D30009043902A2105C40182F
:102130007047C046040302020101010100000000D3
:102140000000000010B5002903D1FFF7DDFF2030AB
:1021500002E0081CFFF7D8FF10BDC04610B5034BC6
:10216000834200D010BD00F055F9FBE7A814002011
:1021700010B598B0302200210CA806F027F91022E3
:10218000002107A806F022F91C220021684606F06B
:102190001DF922230B93213B0E9313930F330F93BF
:1021A00000240BA802F0DCFF07230793043B0893ED
:1021B00009940A94012107A803F0BEFA044B009386
:1021C00004940694684603F059FB18B010BDC0464D
:1021D0002000020010B503F027FCFFF7C9FF00F054
:1021E00061FC00F055FD00F0ABFF01F017F801F0C5
:1021F000C7F8114C200004F0C1FD0021200005F0BB
:1022000013F800F033F80AE000F0D0FA0BE00421F4
:102210000A4804F02AF903F023FC094B186000F087
:102220001FF80028F0D103F01BFC054B1B68C01AF7
:102230006428F4D9EBE7C046A81400200004004845
:1022400008020020704700230F2B07DC02001A4110
:10225000D20701D40133F7E7D8B200E0FF2070477E
:10226000014B18787047C0463A02002070B590259F
:10227000ED0501228021280004F0F1F88021194C9D
:102280000122C900200004F0EAF801220221200006
:1022900004F0E5F8802101224900280004F0DFF86D
:1022A000802101228901200004F0D9F80E4E01227C
:1022B0000121300004F0D3F800220221300004F0A4
:1022C000CEF801224021200004F0C9F8012210219B
:1022D000200004F0C4F8802101220902280004F043
:1022E000BEF870BD000400480014004810B504009A
:1022F0001D4B01221A70093200211C4806F066F8B5
:102300000A2200211A4806F061F80A220021194821
:1023100006F05CF80A220021174806F057F8174922
:10232000200006F083F8011E1DD0104806F076F854
:102330001249002006F07AF8011E14D00C4806F06D
:102340006DF80E49002006F071F8011E0BD0094807
:1023500006F064F80949002006F068F8011E02D072
:10236000054806F05BF810BD3A0200200C02002080
:10237000180200202402002030020020FC9E0008E9
:1023800010B50021014804F04FFF10BDA814002033
:1023900010B50021014804F0E9FF10BDA814002089
:1023A000F8B5041E13D003F07DF92100FDF7C8FE37
:1023B0000500FFF783FE07F0FFFB0022134B07F039
:1023C000ADFBFDF7CFFF07000224012603E0FFF776
:1023D000DFFF19E00134BC4207D221002800FDF7DD
:1023E00035FF0029F6D12600F4E731002800FDF77B
:1023F000A7FE83B2013B9BB2B6B2013EB6B2044A1D
:10240000D36296625B085363F8BDC046E0FFEF40BD
:102410000044014010B5104A1368013313600F4A9D
:102420005278002A03D00D4A5268934200D210BD60
:10243000FFF7AEFF0022084B1A60084B5A709B78DA
:10244000002BF4D0902001328021C00504F007F861
:10245000024B00229A70EAE73C02002000000020B4
:1024600010B5902000228021C00503F0F8FF064B34
:1024700001225A709A7003325A600420FFF790FFCD
:10248000FFF77EFF10BDC0460000002070B5802021
:10249000C001FFF7D8FE4000032422008240124D05
:1024A0002B6893432B6080200002FFF7CCFE400096
:1024B000220082402B6893432B6080208000FFF72E
:1024C000C2FE4000220082409025ED052B68934318
:1024D0002B608020C000FFF7B6FE400084402B68D0
:1024E000A3432B6070BDC04600040048F0B5D6463B
:1024F0004F464646C0B58023DB019A461800FFF7D9
:10250000A2FE4000214D2B68012632008240134379
:102510002B6080231B0299461800FFF794FE4000B1
:102520002B683200824013432B6080239B00984627
:102530001800FFF788FE40009024E405236832006D
:102540008240134323608027FF003800FFF77BFEA3
:102550004000236886401E43266001225146280021
:1025600003F07DFF01224946280003F078FF012295
:102570004146200003F073FF01223900200003F0E0
:102580006EFFE0BCBA46B146A846F0BD0004004864
:1025900010B58021002289010A4803F060FFFFF78F
:1025A000EFFE80214901074803F052FF0028F8D1CF
:1025B000FFF7EEFEFFF79AFF0D21034800F05CFCE9
:1025C00010BDC04600040048009F000810B58021DF
:1025D0004901034803F03CFF43425841C0B210BDDB
:1025E0000004004810B5FFF751FF80210122890146
:1025F000014803F034FF10BD00040048F8B51A4C40
:1026000000220121200003F02AFF012201212000E5
:1026100003F025FF0024002600251FE08021134F32
:10262000C901380003F014FFA0400543EDB280213A
:102630008901380003F00CFFA0400643F6B20A4FB0
:1026400000220221380003F00AFF012003F00EFAF5
:1026500001220221380003F002FF0134072CDDDDE6
:102660002802304380B2F8BD00140048000800483A
:1026700070B5144C00220121200003F0F0FEC0468A
:1026800001220121200003F0EAFE0024002514E0CD
:10269000802109020C4803F0DBFEA0400543EDB2A7
:1026A000084E00220221300003F0D9FEC04601226C
:1026B0000221300003F0D3FE0134072CE8DD2800AE
:1026C00070BDC046001400480008004830B583B013
:1026D000002400946B469C800223181A40006B462D
:1026E000195401301A5480252D029024E40500224B
:1026F0002900200003F0B3FEC046C046C046C046D5
:10270000642306226946074804F0FCF8C046C04628
:10271000C046C04601222900200003F0A0FE03B0FD
:1027200030BDC0464414002010B50400020A012147
:102730000120FFF7CBFFE2B201210220FFF7C6FF25
:1027400010BD10B5020001210020FFF7BFFF10BD32
:1027500070B5002515E0ECB201220C212000FFF736
:10276000B5FF0F220A212000FFF7B0FF00220B2146
:102770002000FFF7ABFFAA2201212000FFF7A6FFF0
:102780000135022DE7DD70BD10B500220C210020BF
:10279000FFF79CFF00220C210120FFF797FF00228A
:1027A0000C210220FFF792FF10BD0000F0B585B0AC
:1027B000A14B00221A70A149A148FDF7A5FC0028F1
:1027C00022D1A049A048FDF79FFC00280BD09F49CB
:1027D0009D48FDF799FC002809D09B4B1B78002BE6
:1027E00009D19B482AE0FFF7CBFD9A4826E0FFF786
:1027F000CFFD984822E00A220021934805F0C2FF4D
:10280000FFF7CEFD934819E093498D48FDF77CFC16
:10281000002805D091498A48FDF776FC002818D198
:10282000894B1B78002B0ED101208D4B01225A7051
:10283000586000229A70FFF7A3FD8648052100F03A
:102840001BFB05B0F0BD0A2200217F4805F09AFF6E
:10285000EBE784497A48FDF757FC002813D08249FA
:102860007748FDF751FC00281BD180497648FDF7D9
:102870004BFC00280BD07E497348FDF745FC00282F
:1028800009D07348DAE7FFF7EBFD7248D6E7FFF7A8
:102890007FFE7048D2E7FFF777FFFFF7A3FE6D4892
:1028A000CCE774496648FDF72FFC00281DD172491A
:1028B0006548FDF729FC002807D070496248FDF7FC
:1028C00023FC00280DD06248B8E7FFF77FFE041E06
:1028D00004D1002C00D1ADE05E48AFE7FFF738FF30
:1028E000F7E7FFF751FF5B48A8E765495448FDF754
:1028F0000BFC002815D1544B1B78002B01D15448F8
:102900009CE7FFF763FE002801D1514896E71022AB
:1029100000214D4805F07CFE80B2FFF705FF4D48D1
:102920008CE758494648FDF7EFFB00280DD0564983
:102930004348FDF7E9FB002841D154494248FDF7DF
:10294000E3FB002815D0424878E7FFF73FFE002858
:10295000EDD03D4B1B78002B01D13D486EE7102296
:102960000021394805F054FEC0B2FFF7EAFE3948AD
:1029700064E78025ED01464C00222900200003F089
:102980006EFD0A2003F072F88027FF009026F605FE
:1029900000223900300003F062FD0A2003F066F8DF
:1029A00001223900300003F05AFD0A2003F05EF8DE
:1029B00001222900200003F052FD26483EE7354958
:1029C0001F48FDF7A1FB002807D033491C48FDF73D
:1029D0009BFB002818D01E4830E7002301930622F5
:1029E000002102A805F0F2FCFFF708FE02002B49C7
:1029F00001A805F0F3FC01A8FDF790FB81B201A846
:102A000000F03AFA134819E700210191062202A8C2
:102A100005F0DCFCFFF72CFE0200214901A805F0BF
:102A2000DDFC01A8FDF77AFB81B201A800F024FAD1
:102A3000084803E7064801E73A020020209F000803
:102A40000C020020249F0008180200202C9F000880
:102A5000109F0008189F0008349F0008289F000856
:102A6000000000203C9F0008409F0008449F000891
:102A7000489F00084C9F0008509F0008549F000882
:102A8000589F00085C9F0008609F0008649F000832
:102A900000040048689F0008749F00086C9F0008AD
:102AA000789F0008F0B5D6464F464646C0B58AB076
:102AB0001422002105A805F089FC474B59698020A4
:102AC0000003014359615A6902400192019A596910
:102AD0008020C003014359615A6902400292029A60
:102AE000596980208002014359615A69024003926A
:102AF000039A5A698021C9020A435A615B690B40F3
:102B00000493049B354B9A4600220321180003F0DE
:102B1000A6FC334B99469026F6050022190030009A
:102B200003F09DFC2F4B98462F4D002219002800E2
:102B300003F095FCE0231B02059300240694079400
:102B400005A92A4803F0B6FB03230593012706973E
:102B50000794089405A9504603F0ACFB4B46059337
:102B600006970794089405A9300003F0A3FB434699
:102B7000059306970794089405A9280003F09AFB8B
:102B800080231B01059384239B030693079405A9C7
:102B9000280003F08FFBD0231B02059306940794B3
:102BA00005A9280003F086FBC023DB0005930694EB
:102BB000079405A9300003F07DFB002200210720C7
:102BC00003F094FC072003F0C1FC0AB0E0BCBA4655
:102BD000B146A846F0BDC0460010024000140048AF
:102BE00080810000562400000004004800080048CE
:102BF0007047FEE77047704710B502F025FF10BD23
:102C000010B58020000103F039FC10BD10B502485A
:102C100004F0E9F810BDC046A814002010B5074B19
:102C20001B689A69E023DB001A4203D0034803F0D3
:102C3000ADFA10BD014802F0D7FFFAE7F813002003
:102C400010B5024803F038FF10BDC0464414002000
:102C500010B5024802F032F810BDC0460411002041
:102C600082B00A4B996901221143996199690A401E
:102C70000092009ADA69802149050A43DA61DB692A
:102C80000B400193019B02B07047C0460010024008
:102C900010B500221149124804F01CFC002811D183
:102CA00010490F4804F032FC00280ED10E490C48A0
:102CB00005F0E6FA00280BD1094804F030FC0028A2
:102CC00009D110BDFFF7BEFAEAE7FFF7BBFAEDE75F
:102CD000FFF7B8FAF0E7FFF7B5FAF2E708000020CF
:102CE00070040020740000205800002012230B8084
:102CF000004870472400002004230B8000487047E0
:102D00003800002030B500230AE05D0037344C5510
:102D100000015C0001340C19002525700133DBB281
:102D2000934206D2040F092CEFD85D0030344C5585
:102D3000EEE730BD70B50B4B18680B4B1D680B4BA5
:102D40001B68C018002800D170BD094CA11C0822C6
:102D5000FFF7D8FF2100123104222800FFF7D2FF2D
:102D6000F2E7C046ACF7FF1FB0F7FF1FB4F7FF1F35
:102D70003C00002010B51A230B80FFF7DBFF014851
:102D800010BDC0463C00002010B50A00002805D147
:102D90000549064805F097F8034810BD0249034865
:102DA00005F091F8F8E7C04634070020809F00083E
:102DB00010B50A00034C2100034805F084F82000F8
:102DC00010BDC04634070020909F000810B50A00CF
:102DD000002805D10549064805F075F8034810BDDF
:102DE0000249034805F06FF8F8E7C04634070020B1
:102DF000989F000810B50A00002805D1054906482B
:102E000005F061F8034810BD0249034805F05BF87E
:102E1000F8E7C04634070020A49F00080020704750
:102E20000020704770B50400084D0100280005F02F
:102E30003BFA280005F05EFA2000FDF76FF901006B
:102E40002000FFF753FA002070BDC0467004002038
:102E500010B5064C00220649200005F01AFA054973
:102E6000200005F021FA002010BDC04670040020AB
:102E70001C0D00203409002010B50A4AAE239B0027
:102E8000D258A43BD358002B01D0012010BD054CD3
:102E90000A000100200005F0FCF9200005F00BFA03
:102EA000F4E7C04670040020022804D005D80028AA
:102EB00000D0022070470120FCE70220FAE710B59D
:102EC000FFF756F910BD000000B583B002680C4B47
:102ED0009A4201D003B000BD0A4AD16980200004A3
:102EE0000143D161D36903400193019B002200217A
:102EF0001F2003F0FBFA1F2003F028FBEAE7C0467F
:102F0000005C00400010024010B50100BC239B0093
:102F1000C058403B9C46614404F01EFB10BD10B5F8
:102F20000300BC22920080588A005218D2009B18DD
:102F30007D33FF331A6804F041FB10BD10B5030068
:102F4000BC22920080588A005218D2009B18DA6B7B
:102F500004F086FB10BD10B5BC239B00C05804F0E4
:102F600041FC10BD70B504008368022B09D1BC255B
:102F7000AD000121605904F017FC605904F0E5FB35
:102F800070BDFFF75FF9F2E710B50400BC239B00AA
:102F9000C05804F00DFCA369002B04D0024A136949
:102FA00006210B43136110BD00ED00E010B50400D5
:102FB0008369002B05D1BC239B00E05804F004FC7E
:102FC00010BD044A136906218B431361FFF777FF95
:102FD000F1E7C04600ED00E070B504001D48BC23D9
:102FE0009B00C450303BE0501B4B03600823436000
:102FF000063B8360036100238361C361036201F0C8
:1030000027F9002823D1B025AD0018230022002184
:10301000605902F071F8582300228021605902F0B3
:103020006BF8C02300228121605902F065F88823E3
:103030005B0000220121605902F05EF86059802394
:103040005B000022822102F057F8002070BDFFF7DC
:10305000F9F8D8E704110020005C004010B5B02357
:103060009B00C05801F066F9FFF71EFF10BD10B5B8
:1030700014001A00B0239B00C058230001F0F2FE98
:10308000FFF712FF10BD10B5B0239B00C05801F030
:1030900028FFFFF709FF10BD10B5B0239B00C058F3
:1030A00001F0B6FFFFF700FF10BD10B5B0239B0085
:1030B000C05801F0E4FFFFF7F7FE10BDB0239B00FE
:1030C000C3584AB2002A09DB7F220A4091008918BE
:1030D000C9005B186B33FF33187870477F220A40B2
:1030E000013291008918C9005B189878F5E710B58E
:1030F000B0239B00C05801F0CBFDFFF7D5FE10BDFB
:1031000010B5B024A400005901F054FFFFF7CCFE25
:1031100010BD10B5B024A400005901F016FFFFF750
:10312000C3FE10BD10B5B0239B00C05801F038FF9E
:1031300010BD0000004870474002002070477047F3
:1031400010B51448144B0360144B43600023836094
:103150000122C260036143618361C361036202F0C3
:10316000DDFC00280CD100210A4803F04DF80028AE
:1031700009D10021074803F073F8002806D110BDDB
:10318000FFF760F8EFE7FFF75DF8F2E7FFF75AF8AF
:10319000F5E7C046F8130020005400400E09002057
:1031A00010B588B004001422002103A805F00EF920
:1031B0002268174B9A4201D008B010BD154C6269C5
:1031C0008021C9020A43626163690B400193019B3C
:1031D000C0239B00039312230493113B0593032206
:1031E0000692079303A90C4803F064F8E269802172
:1031F00089030A43E261E3690B400293029B0022C8
:103200000021172003F072F9172003F09FF9D3E78C
:1032100000540040001002400004004810B511485E
:10322000114B036082235B00436000238360E02234
:10323000D200C26003614361802292008261F13A50
:10324000FF3AC261036243628362093AC262036366
:103250000833436303F0D4FA002800D110BDFEF711
:10326000F1FFFBE7441400200030014010B588B0A6
:1032700004001422002103A805F0A8F82268174BC7
:103280009A4201D008B010BD154B996980204001C9
:10329000014399619A6902400192019A5A69802119
:1032A000C9020A435A615B690B400293029B2823BF
:1032B0000393263B0493002305930322069207936E
:1032C00003A9084802F0F6FF00220021192003F0AC
:1032D0000DF9192003F03AF9D4E7C0460030014057
:1032E000001002400004004800B583B002680C4B97
:1032F0009A4201D003B000BD0A4A91698020800241
:1033000001439161936903400193019B00220021D5
:10331000152003F0EBF8152003F018F9EAE7C04692
:10332000004401400010024010B586B00400142291
:10333000002101A805F04AF822680F4B9A4201D0FB
:1033400006B010BD0D4A51698020800201435161D1
:10335000536903400093009B402301933E3B02933B
:1033600000230393049305330593902001A9C0051E
:1033700002F0A0FFE4E7C046004401400010024014
:1033800000B591B01C22002109A805F01FF82022E9
:10339000002101A805F01AF82248234B03600023FE
:1033A00043608360214AC26003614361836103F02B
:1033B00019FE002829D11B4803F040FE002827D120
:1033C0006023099300230A930B930C930D930E93A0
:1033D0000F93002209A9134803F0A0FE00281AD178
:1033E0000023019302930393049305938022920197
:1033F0000692089301A90B4804F034F800280DD177
:103400000848FFF791FF11B000BDFEF71BFFD2E7A0
:10341000FEF718FFD4E7FEF715FFE1E7FEF712FF0E
:10342000EEE7C046A814002000440140FFFF000062
:1034300044230022C252043B014AC252002070477A
:1034400080BFFFFF4022835A02490B408352002075
:103450007047C0467F40000084B001910292039300
:1034600040220123835200238352043283520C32C0
:103470008352002004B07047F0B503000D78AD0012
:1034800045192A88B1480240C87802285AD00AD87B
:10349000002853D0012804D18020C000024300201E
:1034A00009E0012007E0032804D1C020C000024346
:1034B000002000E00120A64C224392B22A800A7824
:1034C00096009E1935882DB2A24F3D402A4392B2F4
:1034D0001443A4B234800A7B002A00D090E04A78DA
:1034E000002A3CD050229C5A1C190A78D20012198A
:1034F0008024E400A4466244CC88640864001480FC
:103500000A7892009A181488640606D514883D003B
:103510002540914C2C43A4B21480CA78012A13D0C0
:103520000A7892009B181A888C490A4020214A4048
:1035300092B287490A4392B21A804BE08024A400D9
:103540002243B8E70020B6E70A7892009B181A8851
:10355000824911407E4A0A4392B21A803AE05025CD
:103560005C5B1C190A78D20012197D4CA446624497
:10357000CC886408640014805C5B1C190A78D20053
:103580001219784CA44662440C69002C23D114888B
:10359000754D2C4014801488744D2C43A4B21480B3
:1035A0000A7892009A181488640406D51488694D24
:1035B00025406F4C2C43A4B214800A7892009B18CB
:1035C00019886C4A1140C02292015140604A0A4356
:1035D00092B21A80F0BD3E2C07D86508E40700D5EA
:1035E0000135AD02ADB21580DAE76509E40600D118
:1035F000013DAD02ADB25D4C2543ADB21580CFE7C4
:10360000CA78022A57D00A7892009A1814885A4D1C
:1036100025404F4C2C43A4B2148050255C5B1C19F0
:103620000A78D20012198024E400A44662440C896E
:103630006408640014805C5B1C190A78D2001219BB
:10364000474CA44662444C896408640014804A785C
:10365000002A3BD10A7892009A181488640406D58F
:1036600014883C4D2540424C2C43A4B214800A7867
:1036700092009A181488640606D51488354D2540A2
:10368000354C2C43A4B214800C78A4001C19228859
:10369000384D1540C02292016A402D4D2A4392B206
:1036A00022800A7892009B181A882C490A402A43E3
:1036B00092B21A808EE70A7892009A181488254DE3
:1036C00025402E4C2C43A4B21480A6E70A78920021
:1036D0009A181488640406D514881E4D2540244C7D
:1036E0002C43A4B214800A7892009A1814886406B5
:1036F00006D51488174D2540174C2C43A4B21480CE
:10370000CA78012A17D00C78A4001C192288134DFE
:103710002A4020256A4092B20D4D2A4392B222805F
:103720000A7892009B181A8812491140084A0A43E5
:1037300092B21A804EE70A7892009A181488074DC0
:103740002540034C2C43A4B21480E9E78F89FFFF86
:103750008080FFFF8F8FFFFFC080FFFFBF8FFFFFC5
:103760000404000006040000FF83FFFF0080FFFF49
:1037700080C0FFFF8FBFFFFF8F8EFFFF8081FFFFA5
:1037800010B50B7B002B33D14B78002B18D00B7866
:103790009B00C3181A88520606D51A884E4C14404E
:1037A0004E4A224392B21A800B789B00C0180388BD
:1037B0004B4A1A404B4B13439BB20380002010BD71
:1037C0000B789B00C3181A88520406D51A88424CFD
:1037D0001440454A224392B21A800B789B00C018CD
:1037E0000388424A1A403F4B13439BB20380E5E7EC
:1037F0004B78002B37D10B789B00C3181A885204E2
:1038000006D51A88344C1440374A224392B21A80A3
:103810000B789B00C3181A88520606D51A882E4CBE
:1038200014402E4A224392B21A800B789B00C31890
:103830001A88294C1440294A224392B21A800C78E3
:10384000A40004192388294A1340264A13439BB233
:1038500023800B789B00C018038821490B401A4332
:1038600092B20280AAE70B789B00C3181A88520410
:1038700006D51A88184C14401B4A224392B21A806B
:103880000B789B00C3181A88520606D51A88124C6A
:103890001440124A224392B21A800B789B00C3183C
:1038A0001A880D4C1440104A224392B21A800C78A8
:1038B000A400041923880A4A13400A4A13439BB2FE
:1038C00023800B789B00C018038808490B401A43DB
:1038D00092B2028072E7C0468F8FFFFFC080FFFF69
:1038E000BF8FFFFF8080FFFF80C0FFFF8FBFFFFF04
:1038F0004B78002B0ED00B789B00C01803880C4A25
:103900001340102253409BB20A4A13439BB20380D8
:10391000002070470B789B00C0180288064B1A40A5
:1039200080235B015A40034B13439BB20380EFE7B4
:10393000BF8FFFFF8080FFFF8FBFFFFF10B50B7BA6
:10394000002B3AD14B78002B1DD00B789B00C3186D
:103950001A88520606D51A88194C1440194A22436F
:1039600092B21A80CB78012B27D00B789B00C0181D
:103970000388154A1340202253409BB2134A134335
:103980009BB2038019E00B789B00C3181A8852047D
:1039900006D51A880A4C14400D4A224392B21A8066
:1039A0000B789B00C01802880A4B1A40C0239B0169
:1039B0005A40064B13439BB20380002010BDC04603
:1039C0008F8FFFFFC080FFFFBF8FFFFF8080FFFF53
:1039D00080C0FFFF8FBFFFFF002902D14C23802250
:1039E000C2520020704700005822835A02490B43FC
:1039F0009BB28352002070470080FFFF4423C05ACF
:103A000080B2704710B501335B0810188022D200D5
:103A100094466044002B08D00C784A781202224366
:103A2000028002300231013BF4E710BD70B50500A1
:103A30000C004A78012A2ED00B7B002B00D053E2D9
:103A40008B690A69934200D835E29B1A8B61502337
:103A5000E95A69182378DB005B18BA498C4663443D
:103A6000002A00D02BE21A88B7490A401A801A8827
:103A7000B6490A4392B21A80207880002D182A880D
:103A8000B34B1A40C0239B015A40B24B13439BB225
:103A90002B80002070BD8E6909698E4200D90E000E
:103AA000237B002B24D0E378022B41D0236A9B1B7D
:103AB00023622378990069180988490600D4BEE179
:103AC000002A00D0AAE15032AA5AAA18DB009B189B
:103AD0009C4A94466344002E00D08AE11A889A4991
:103AE0000A401A801A8899490A4392B21A809FE1C3
:103AF000B6B2E288330061692800FFF783FF5023E4
:103B0000EA5AAA182378DB009B18934A9446634428
:103B10001E80207880002D182B88904A1340302278
:103B200053409BB28B4A13439BB22B800020B1E7DA
:103B3000236A994200D341E123789B00EB181A884D
:103B400087491140874A0A4392B21A80236A9B1B15
:103B5000236223789A00AA181288520600D48DE0B6
:103B60006278002A28D15032AA5AAA18DB009B1882
:103B7000744A94466344002E09D11A8872490A4057
:103B80001A801A8871490A4392B21A8016E03E2EB2
:103B900007D87208F10700D50132920292B21A805A
:103BA0000CE07209F10600D1013A920292B2674923
:103BB0000A4392B21A8001E0012A26D06289B3B288
:103BC00061692800FFF71EFF63699B196361236A1F
:103BD0002269934224D99B1B23626378002B38D13E
:103BE0005033EA5AAA182378DB009B185A4A9446A5
:103BF0006344002E18D11A8853490A401A801A8843
:103C000052490A4392B21A8025E04F32AA5AAA18A2
:103C1000DB009B184B4A94466344B2B21A80CDE74E
:103C2000002222621E00D8E73E2E07D87208F10754
:103C300000D50132920292B21A800CE07209F106AC
:103C400000D1013A920292B240490A4392B21A80DC
:103C500001E0012B06D02289B3B261692800FFF789
:103C6000D1FE56E74F33EA5AAA182378DB009B1897
:103C7000394A94466344B2B21A80ECE76278002A6B
:103C800028D15032AA5AAA18DB009B18324A94460F
:103C90006344002E09D11A882B490A401A801A88D9
:103CA0002A490A4392B21A8016E03E2E07D87208BB
:103CB000F10700D50132920292B21A800CE072092B
:103CC000F10600D1013A920292B220490A4392B21F
:103CD0001A8001E0012A26D02289B3B26169280046
:103CE000FFF790FE63699B196361236A226993421F
:103CF00024D99B1B23626378002B4AD15033EA5AA4
:103D0000AA182378DB009B180E4A94466344002EC1
:103D10002AD11A880C490A401A801A880B490A438A
:103D200092B21A8037E04F32AA5AAA18DB009B18C9
:103D3000094A94466344B2B21A80CDE70022226257
:103D40001E00D8E706040000FF83FFFF0080FFFF8E
:103D50008FBFFFFF8080FFFF02040000BF8FFFFFC7
:103D60008F8FFFFF8081FFFF3E2E07D87208F1077B
:103D700000D50132920292B21A800CE07209F1066B
:103D800000D1013A920292B2C2490A4392B21A8019
:103D900001E0012B06D06289B3B261692800FFF708
:103DA00031FEB6E64F33EA5AAA182378DB009B1897
:103DB000B94A94466344B2B21A80ECE72278920082
:103DC000AA181188B5480840B549014389B2118045
:103DD0005022A95A69182278D2005218B1498C464B
:103DE00062449BB21380228961692800FFF70AFEB2
:103DF0008FE63E2E07D87208F10700D501329202F5
:103E000092B21A8014E07209F10600D1013A9202CE
:103E100092B2A0490A4392B21A8009E05022AA5AEB
:103E2000AA18DB009B189C4A94466344B2B21A80DD
:103E30006289B3B261692800FFF7E4FD69E6002AF0
:103E400028D15032AA5AAA18DB009B18954A9446EA
:103E50006344002E09D11A8893490A401A801A88AF
:103E60008C490A4392B21A801EE03E2E07D872088F
:103E7000F10700D50132920292B21A8014E0720961
:103E8000F10600D1013A920292B282490A4392B2FB
:103E90001A8009E05022AA5AAA18DB009B18814A0E
:103EA00094466344B2B21A802289B3B26169280091
:103EB000FFF7A8FD2DE600228A611A00C7E53E2A19
:103EC00007D85108D20700D50131890289B219807B
:103ED000D2E55109D20600D10139890289B26D4A71
:103EE000114389B21980C7E5CB78022B3AD0012B58
:103EF00000D005E189692369994200D8B1E0C91A67
:103F0000A161002A14D15032A95A69182278D2002E
:103F1000521864498C466244002B00D0A5E01188F9
:103F200061480140118011885A48014389B21180CB
:103F30006278002A00D0D4E05032A95A6918227859
:103F4000D200521854498C466244002B00D0B3E092
:103F5000138855490B40138013884E490B439BB27D
:103F6000138089E5002A14D14E33C25A82180B7887
:103F7000DB009B184B4A944663440A69002A21D10E
:103F80001A8849490A401A801A8842490A4392B25B
:103F90001A806378002B3FD15033EA5AAA1823784D
:103FA000DB009B183C4A944663442269002A1ED1D8
:103FB0001A883D490A401A801A8836490A4392B243
:103FC0001A802BE03E2A07D85108D20700D50131CC
:103FD000890289B21980DCE75109D20600D1013982
:103FE000890289B22B4A114389B21980D1E73E2A4E
:103FF00007D85108D20700D50131890289B219804A
:104000000CE05109D20600D10139890289B2214A56
:10401000114389B2198001E0012B16D0E369002B0E
:1040200000D129E523789B00EB181A881F490A4024
:104030008A4202D0002A00D01EE51A881C4911408D
:104040001C4A0A4392B21A8016E54F33EA5AAA185C
:104050002378DB009B18104A94466344228A1A8016
:10406000DCE70023A3610B004BE73E2B07D8590880
:10407000D80700D50131890289B2118058E7590962
:10408000D80600D10139890289B20248014389B2B8
:1040900011804DE70080FFFF060400008F8EFFFFB8
:1040A0008080FFFF02040000FF83FFFF404000000C
:1040B0008F8FFFFFC080FFFF3E2B07D85908DB071B
:1040C00000D50131890289B21180D5E45909DB0696
:1040D00000D10139890289B20A4B194389B2118092
:1040E000CAE4012A00D0C7E44F32A95A69182278DD
:1040F000D200521804498C4662449BB21380BBE440
:104100000120C7E40080FFFF0604000010B55C0832
:1041100010188022D20094466044002C07D00288F8
:1041200002300A70120A4A700231013CF5E7DB07DF
:1041300001D503880B7010BD70B553043ED50468DB
:104140005023E35A0D78EE009B191B193A4CA446F4
:1041500063441C88A405A40D8B69A34224D31B1BB4
:104160008B618B69002B0DD1AD0003689C466544C3
:104170002E88324B1E4080239B015E40304B3343E0
:104180009BB22B8053060BD50A78920003689C469D
:10419000624413882B4D1D402B4B2B439BB2138045
:1041A000002C04D1200070BD00238B61D9E700688A
:1041B0000A8949692300FFF7A9FFF3E70468502340
:1041C000E35A0D78EE009B191B19204CA44663445A
:1041D0001C88A405A40D8B69A34229D31B1B8B61EA
:1041E0008B69002B0DD1AD0003689C4665442E8879
:1041F000124B1E4080239B015E40114B33439BB208
:104200002B8053060BD40A78920003689C466244C4
:1042100013880C4D1D400C4B2B439BB21380002C7C
:10422000C0D000684A8949692300FFF76FFFB9E7EA
:1042300000238B61D4E7C046020400008FBFFFFF5C
:104240008080FFFF8F8FFFFFC080FFFF060400000C
:1042500070B586B0041E69D0354BC35C002B22D0EC
:10426000334B0322E2542068FFF7ECF8002160682A
:1042700081421FD24D1CAB005A19D200A218012056
:1042800050705A19D20011558A005018C0002018D9
:10429000C1865B19DB00E3180026DE708663C66307
:1042A0000664E9B2E3E7AA239B000022C254FEF7AA
:1042B0000BFED5E7002119E08A005318DB00E31854
:1042C0001E006A36FF3600253570013E3170033618
:1042D00035700D3635607D33FF331D605218D200C6
:1042E000A2188132FF3215600131C9B28842E3D889
:1042F000230010336A4623CB23C203CB03C2616879
:10430000A268E3682068FFF7A7F824230022E2549C
:10431000074B0132E254E369012B02D0002006B0C2
:1043200070BD200000F005FF0020F8E70120F6E74F
:10433000A902000070B50400AA239B00C35C012BF6
:104340000DD0AA25AD00012343550068FFF770F892
:104350002068FFF749FB00236355002070BD022051
:10436000FCE7000070B505000C001600530600D4F1
:10437000ECE002685023D35A0978C8001B189B1838
:10438000AB4A944663441A889205920DA3699342FE
:1043900041D99B1AA361A369002B5AD16378002BE2
:1043A0003CD12B6850229A5A9B18C018A04B9C46AF
:1043B000604403889F4A1340038003889E4A134346
:1043C0009BB203802B686278002A34D150329A5A0B
:1043D0009A182378DB009B18984A944663441A88FD
:1043E00094490A401A801A8893490A4392B21A8063
:1043F00021782800FEF7A2FD73043BD522789200B5
:104400002B689C46624413888D4919408D4B0B43A1
:104410009BB213802EE00023A361BCE7012BD1D116
:104420002B6850229A5A9B18C018814B9C466044B6
:1044300000230380C6E7012ADAD14F329A5A9B182B
:104440002278D200D3187D4A9446634400221A8011
:10445000CEE773040AD589002B689C4661440B881B
:1044600077481840774B03439BB20B802423E35CCF
:10447000012B0FD0296823789B00C9180B88724A3A
:104480001340302253409BB2704A13439BB20B80BF
:10449000002070BD63699B186361E3699B18E36149
:1044A000216A236999421AD3C91A21626278002AC3
:1044B00036D12A685021515A51182278D200521808
:1044C0005B498C466244002B15D111885948014044
:1044D000118011885848014389B2118022E00029D7
:1044E00003D12423E1541300E0E700232422A35442
:1044F00023620B00DAE73E2B07D85908D80700D50E
:104500000131890289B211800CE05909D80600D125
:104510000139890289B24848014389B2118001E01A
:10452000012A06D09BB2228961692868FFF76AFADE
:10453000A0E72A685021515A51182278D200521807
:104540003B498C46624499B21180EBE702685023E4
:10455000D35A0978C8001B189B18384A94466344FC
:104560001A889205920DA369934242D39B1AA361C4
:10457000A369002B6CD16378002B3DD12B685022AE
:104580009A5A9B1818182A4B9C4660440388294A5B
:10459000134003800388284A13439BB203802B688F
:1045A0006278002A35D150329A5A9B182278D2006C
:1045B0009B18224A944663441A881E490A401A806E
:1045C0001A881D490A4392B21A8021782800FEF702
:1045D000B5FC730400D54DE7227892002B689C4609
:1045E0006244138816491940164B0B439BB2138043
:1045F00040E70023A361BBE7012BD0D12B685022F9
:104600009A5A9B1818180A4B9C4660440023038052
:10461000C5E7012AD9D14F329A5A9B182278D20085
:104620009B18064A9446634400221A80CDE7C04690
:1046300002040000FF83FFFF0080FFFF060400006C
:104640008F8FFFFF80C0FFFFBF8FFFFF8080FFFFC6
:1046500073040AD489002B689C4661440B88334854
:104660001840334B03439BB20B802423E35C012BA4
:1046700000D0FFE663699B186361E3699B18E361FF
:10468000216A236999421AD3C91A21622A6861787A
:10469000002935D15031515A52182178C900521889
:1046A00024498C466244002B15D1118822480140D0
:1046B000118011882148014389B2118022E000292C
:1046C00003D12423E1541300E0E7002323622422D2
:1046D000A3540B00DAE73E2B07D85908D80700D5BA
:1046E0000131890289B211800CE05909D80600D144
:1046F0000139890289B21148014389B2118001E070
:10470000012906D09BB2628961692868FFF77AF9AE
:10471000B0E64F31515A52182178C9005218054954
:104720008C46624499B21180ECE7C0468F8FFFFF40
:1047300080C0FFFF06040000FF83FFFF0080FFFF33
:10474000F8B5CE46474680B50400B6E00388C24AB5
:104750001A40C24B13439BB2038021685023CB5AAB
:104760002822A25CD2009B185B18BD4A9446634481
:104770001B889B059B0D6364E26B94466344E36373
:1047800000212000FEF7DAFB2423E35C002B00D19C
:1047900093E0236C002B00D08FE02422A35C8021C7
:1047A00049420B43DBB2CC31206843520023A3546F
:1047B00083E05023C35AB4225200A25CD2009B185B
:1047C0001B18A84A944663441B889B059B0D220036
:1047D0006932FF32D361AC2189006118D288FFF7BA
:1047E00095FC22681388A0490B4080210B439BB2A3
:1047F00013802000FEF788FB5FE03E2A07D85108AF
:10480000D20700D50131890289B21980B5E051097A
:10481000D20600D10139890289B2904A114389B286
:104820001980AAE0AE00801903889FB21BB2002B4A
:1048300000DAAEE03B0640D5681C83001918C900B9
:104840008846A044226894466644328882491140D2
:10485000824A0A4392B232804346DB78022B00D16F
:10486000BAE1AB005B19DB00E31800221A647B0697
:1048700000D47FE143465B78002B00D066E12368DB
:104880005022995A591882001218D200135DDB0089
:104890005B18734A944663441A8874490A401A8024
:1048A0001A886E490A4392B21A806B1C9D00ED185B
:1048B000ED00295D2000FEF741FB20684423C35A28
:1048C0001BB2002B00DBD2E14423C35A99B20F2262
:1048D0001D0015401342A5D1CB0600D436E702884F
:1048E00093B2120500D564E71BB2002BE5DA03880A
:1048F0005D4A1340802213439BB2038020685023FB
:10490000C35AB4225200A25CD2009B181B18554A0D
:10491000944663441B889B059B0D22006932FF323D
:10492000D361002B0FD0516900290CD01500D2881B
:10493000FFF7ECFB6B69EA69944663446B61002105
:104940002000FEF7ECFA23681A881205B5D450222D
:104950009A5A9B18434A9446634422006932FF32B4
:104960001269002A00D048E71A8840490A401A8094
:104970001A883A490A4392B21A8021680A883C4B45
:104980001A40C0239B015A403A4B13439BB20B8001
:1049900093E70388344A1340802213439BB2038079
:1049A0007219D2006932FF329046A0447319DB00BD
:1049B000E3187533FF331B78002B5DD1206850332B
:1049C000C25A7319DB00E3186933FF331B78DB002D
:1049D000D3181B18234A944663441B889B059A0DE1
:1049E0009146002B2AD14B46AA005219D200A21898
:1049F00010008530FF3001684944016011007D31AD
:104A0000FF310868484408608132FF321268002A8A
:104A100009D0AA005219D200A2187932FF321268C6
:104A2000934200D38DE0AB005B19DB00E3186933E0
:104A3000FF3319782000FEF772FAFBE67319DB00EA
:104A4000E3181A006F32FF3212887D33FF33196882
:104A50004B46FFF75BFBC6E70F8FFFFF0080FFFFB2
:104A600002040000060400008F0F0000FF83FFFF18
:104A70008FBFFFFF8080FFFFAB005B19DB00E318F7
:104A80006C33FF331B78022B36D0AB005B19DB0095
:104A9000E3186933FF33197889002268944661442A
:104AA0000A8875481040754A024392B20A8020680D
:104AB0001B789A0082181288520424D55022825AF8
:104AC000DB00D3181B186E4A944663441B889B0571
:104AD0009A0D9146002B00D185E7AB005B19DB00F6
:104AE000E3181A007132FF3212887D33FF331968E0
:104AF0004B46FFF70BFB76E73A0041462000FFF7F5
:104B00001BFB81466FE75022825ADB00D3181B182B
:104B10005C4A944663441B889B059A0D9146002B82
:104B200000D160E7AB005B19DB00E3181A007332B9
:104B3000FF3212887D33FF3319684B46FFF7E6FAE0
:104B400051E741462068FEF771FF73E6012B00D064
:104B5000ABE623685022995A59186B1C9A00D21858
:104B6000D200135DDB005B18454A94466344002283
:104B70001A809AE62268691C8B005B18DB00E31838
:104B80005B78002B15D15033D35AD2188B005B18A9
:104B9000DB001B5DDB009B183A4A944663441A888D
:104BA00039490A401A801A8838490A4392B21A8051
:104BB0007BE6012B00D078E64F33D35AD218691C1C
:104BC0008B005B18DB001B5DDB009A182D4B9C46AD
:104BD00062440023138068E6FB0542D4206850231A
:104BE000C35A6E1CB2009219D200125DD2009B18FB
:104BF0001B18234A944663441A889205920DAB0011
:104C00005B19DB00E3181E6C964215D9AB005B19EB
:104C1000DB00E318B61A1E64AB005B19DB00E31877
:104C20001B6C002B0FD16B1C9D00ED18ED00295D56
:104C30002000FEF783F940E6AB005B19DB00E318C8
:104C400000261E64E8E7AB005E19F600A619F16BBA
:104C50008F18F763736C9A1872644146FEF7E6FE8C
:104C60002BE63A0041462000FFF77CFB25E60020BA
:104C7000C0BCB946B046F8BD8F8FFFFFC080FFFFB4
:104C80000204000006040000FF83FFFF0080FFFF16
:104C900070B50400AA239B00C35C012B0CD0AA258D
:104CA000AD00012343552333C1540068FEF794FE41
:104CB00000236355002070BD0220FCE770B504009E
:104CC0000068FEF79BFE030400D57DE02068FEF738
:104CD00095FE430500D57BE02068FEF78FFE430478
:104CE00005D5216844228B5A574803408B522068CF
:104CF000FEF784FE830405D5216844228B5A53486D
:104D000003408B522068FEF779FEC30418D5216852
:104D10004023CA5A04208243CA522168CA5A043026
:104D20008243CA52B8239B00E35C012B5ED0200073
:104D3000FEF73CF9216844228B5A454803408B52C8
:104D40002068FEF75BFE030559D42068FEF756FE87
:104D5000030628D5216844228B5A802083438B5236
:104D6000B8239B00E35C002B60D12168043A8B5A86
:104D7000042003439BB28B5221688B5A08200343C3
:104D80009BB28B52B8239B003F3AE25454232268D3
:104D9000D25A9208183B1340B9229200A350012125
:104DA000200000F0DBF92068FEF728FE830541D4DF
:104DB0002068FEF723FEC30505D5216844228B5ADF
:104DC000244803408B5270BD2000FFF7B9FC7DE7FB
:104DD000216844228B5A204803408B522000FEF762
:104DE000C1F800212000FFF753FF75E7B8239B00AF
:104DF0000022E2540021200000F0B0F997E721687A
:104E000040228B5A082003439BB28B5220684421D6
:104E1000435A124D2B40435221688B5A04200343BE
:104E20009BB28B522000FEF7AFF88EE72000FEF712
:104E3000ABF8B8E7216844228B5A094803408B52EB
:104E40002000FEF788F8B3E7FFBFFFFFFFDFFFFF9B
:104E5000FFEFFFFFFFFEFFFFFFFBFFFFFFF7FFFF7F
:104E6000FFFDFFFF70B504000D0049B2002929DBEA
:104E700007262E40B0008119C9006931FF31611841
:104E80008019C00020186A30FF3000260670072005
:104E900005400D700A61CB704A78002A00D0CD81A0
:104EA000022B19D0AA239B00E35C012B17D0AA2563
:104EB000AD00012363552068FEF7DEFA0023635539
:104EC000002070BD07202840461CB0008119C90091
:104ED000611801264E70DAE700230B71E2E7022029
:104EE000EFE770B504000A004BB2002B21DB07206E
:104EF000084083001918C9006931FF3161181B1877
:104F0000DB00E3186A33FF330020187007231A40D0
:104F10000A70AA239B00E35C012B14D0AA25AD00E4
:104F2000012363552068FEF72BFC00236355002006
:104F300070BD07230B40581C83001918C900611865
:104F400001204870E2E70220F2E7F8B507260E409C
:104F5000B400A119C9006931FF314118A519ED004C
:104F600045192F007D37FF373A602A008132FF3222
:104F700013600432002313606A35FF352B70A419C7
:104F8000E40004196934FF342670002E04D100684F
:104F9000FEF74CFD0020F8BD0068FEF747FDF9E77D
:104FA00007230B409900C918C90040188530FF300D
:104FB00000687047F0B5C64600B507250D406F1C68
:104FC000BE00F119C90088468044AC006419E400B1
:104FD0000419E26323644C229446A4444B3A61468C
:104FE0000A70A3640023636443465A70F619F600FE
:104FF0003554002D07D100684146FEF717FD00200B
:1050000080BCB846F0BD00684146FEF70FFDF6E7EC
:1050100070B504000B0007220A4041688A422AD872
:1050200059B200291FDB9800C118C9006931FF314E
:105030006118C318DB00E3186A33FF3300201870CF
:1050400001238B700A70AA239B00E35C012B14D010
:10505000AA25AD00012363552068FEF749FC002313
:105060006355002070BD501C83001918C9006118D9
:1050700001204870E4E70120F4E70220F2E770B570
:1050800004000B000F220A4041688A4230D85AB20D
:10509000002A23DB0720184082001118C90069315B
:1050A000FF3161181218D200A2186A32FF320020B4
:1050B000107000228A70073213400B70AA239B00E5
:1050C000E35C012B16D0AA25AD00012363552068AF
:1050D000FEF734FC00236355002070BD07221A4000
:1050E000501C82001118C900611801204870E0E7C7
:1050F0000120F2E70220F0E710B50C060CD50724DA
:10510000214001318C006118C9004018002A0AD1E1
:105110000273C380002010BD8C006118C900693182
:10512000FF314018F2E70122027303811B0C438117
:10513000F0E70168BA239B000122C250083B00221D
:10514000C25454328B5A012003439BB28B528B5A68
:10515000022003439BB28B5200207047704700002F
:1051600070B582B0041E00D17FE20368DB072BD547
:10517000B34B5A680C231340042B1DD0B04B5A6814
:105180000C231340082B0ED06368012B41D0002B59
:1051900056D1AB4B1A68AB490A401A601A68AA4943
:1051A0000A401A603BE0A64B5B68C02252021340E3
:1051B000802252029342E7D1A14B1B689B0303D587
:1051C0006368002B00D153E223689B0777D59C4B83
:1051D0005B680C221A4262D0994B5A680C23134028
:1051E000082B53D0E368002B00D18AE0944A13685F
:1051F00001210B43136000F033FC0500904B1B684A
:105200009B0775D400F02CFC401B0228F6D9032024
:105210002CE28B4A116880235B020B4313606368A6
:10522000002B25D000F01CFC0500854B1B689B0360
:10523000CAD400F015FC401B6428F6D9032015E2FF
:10524000052B09D07E4B1A687E490A401A601A68FD
:105250007D490A401A60E2E7794B19688022D20240
:105260000A431A601968802252020A431A60D6E77C
:1052700000F0F6FB0500724B1B689B03A4D500F001
:10528000EFFB401B6428F6D90320EFE16C4B5B6811
:10529000C02252021340802212029342A2D1684BD4
:1052A0001B689B0703D5E368012B00D0E2E164494A
:1052B0000B68F82293432269D20013430B602368E2
:1052C0001B0744D5E369002B2ED05D4A536A0121A8
:1052D0000B43536200F0C4FB0500594B5B6A9B070C
:1052E00035D400F0BDFB401B0228F6D90320BDE1F8
:1052F00053490B68F82293432269D20013430B6091
:10530000DDE74F4A136801218B43136000F0A8FBCF
:1053100005004B4B1B689B07D1D500F0A1FB401B40
:105320000228F6D90320A1E1454A536A01218B43A3
:10533000536200F095FB0500414B5B6A9B0706D565
:1053400000F08EFB401B0228F6D903208EE1236873
:105350005B0700D480E03A4BDB69DB001DD4384AA0
:10536000D169802040050143D161D3690340019395
:10537000019B0125354B1B68DB0510D5A368012B6C
:1053800021D0002B36D12E4B1A6A01218A431A6292
:105390001A6A03318A431A621AE00025EAE72B4AA7
:1053A000116880235B000B43136000F059FB06007B
:1053B000264B1B68DB05E1D400F052FB801B642800
:1053C000F6D9032052E11E4A136A01210B431362EE
:1053D000A368002B24D000F043FB0600184B1B6A87
:1053E0009B0737D400F03CFB801B194B9842F5D942
:1053F00003203BE1052B09D0114B1A6A01218A4396
:105400001A621A6A03318A431A62E1E70C4B1A6A7C
:1054100004210A431A621A6A03390A431A62D7E757
:1054200000F01EFB0600064B1B6A9B0712D500F01E
:1054300017FB801B064B9842F5D9032016E1C046A6
:1054400000100240FFFFFEFFFFFFFBFF0070004067
:1054500088130000012D39D02368DB0610D563695D
:10546000012B39D0053357D1894A536B04218B4323
:105470005363536BF4318B43A169C9000B435363EE
:1054800023689B066ED5824B5A680C2313400C2B65
:1054900060D07F4B5A680C231340082B53D0236AEB
:1054A000002B7ED07A4A516B80235B020B435363FF
:1054B00000F0D6FA0500764B5B6BDB0352D400F0AC
:1054C000CFFA401B0228F6D90320CFE0704AD369F7
:1054D00070490B40D361BFE76D4B5A6B04210A43FF
:1054E0005A635A6B03390A435A6300F0B9FA05004C
:1054F000674B5B6B9B0706D400F0B2FA401B022897
:10550000F6D90320B2E062494B6BF8229343A269BB
:10551000D20013434B63B3E75D4B5A6B04210A433C
:105520005A635A6B03398A435A6300F099FA0500AB
:10553000574B5B6B9B07A3D500F092FA401B0228E8
:10554000F6D9032092E0524B5B68C022520213400E
:105550009342A4D14E4B5B6BDB0303D5236A012B33
:1055600000D089E0636A002B00D187E0484A516887
:105570000C220A40082A60D0022B25D0444A136826
:1055800045490B40136000F06BFA0400404B1B6868
:105590009B0150D500F064FA001B0228F6D90320C5
:1055A00064E03B4A536B3D490B40536300F058FAAB
:1055B0000500374B5B6BDB03D4D500F051FA401B81
:1055C0000228F6D9032051E0314A136832490B40D2
:1055D000136000F045FA05002D4B1B689B0106D5B2
:1055E00000F03EFA401B0228F6D903203EE0284B8B
:1055F000DA6A0F218A43216B0A43DA625A68284922
:105600000A40E16AA06A01430A435A60196880228D
:1056100052040A431A6000F023FA04001C4B1B6872
:105620009B0106D400F01CFA001B0228F6D90320C7
:105630001CE000201AE0002018E0012B20D0144BC1
:105640005A68D96AC0235B021340A06A834219D109
:105650000F230B40216B8B4216D1F0239B031A4082
:10566000E36A9A4212D1002000E0012002B070BD2E
:105670000120FBE70120F9E70120F7E70020F5E72B
:105680000120F3E70120F1E70120EFE70120EDE73A
:1056900000100240FFFFFFEFFFFFFFFEFFFFFEFFD6
:1056A000FF7FC2FF10B588B004AA1E4B13CB13C2F4
:1056B0001B6813606A461C4B13CB13C21B68136034
:1056C0001A4B5A680C231340082B04D00C2B26D1FC
:1056D000174808B010BD910C0F23194004A8445C72
:1056E0001249C96A0B406946C95CC0235B021A4073
:1056F00080235B029A4208D0C0235B029A4209D001
:105700000C48FAF71DFD6043E3E70A48FAF718FD75
:105710006043DEE70648FAF713FD6043D9E7054822
:10572000D7E7C046C49F0008D89F00080010024079
:10573000006CDC0200127A0070B504000D00002835
:1057400000D186E0474B1A68012313408B420AD2EE
:1057500044490B68012293432B430B600B681A40AA
:10576000AA4200D077E023689A070ED55B0705D5DB
:105770003D4A5168E023DB000B4353603A4A5368CB
:10578000F0218B43A1680B4353602368DB0735D5B9
:105790006368012B09D0022B24D0032B28D0324A76
:1057A0001268920705D4012052E02F4A1268920332
:1057B00053D52D494A680320824313434B6000F0C0
:1057C0004FF90600284B5B680C221A4063689B0067
:1057D0009A4213D000F044F9801B244B9842F1D92F
:1057E000032035E0204A12689201E2D401202FE024
:1057F0001D4A526BD203DCD4012029E0194B1A68F0
:1058000001231340AB4209D916490B680122934387
:105810002B430B600B681A40AA4220D123685B0718
:1058200006D5114A536812490B40E1680B43536097
:10583000FFF738FF0C4B5A6812090F2313400D4A2B
:10584000D35CD8400C4B1860002000F0C5F8002055
:1058500070BD0120FCE70120FAE70120F8E70120F4
:10586000F6E7C04600200240001002408813000006
:10587000FFF8FFFFB49F00086800002070B582B0F9
:1058800004000368DB0337D54C4BDB69DB0067D4CE
:105890004A4AD169802040050143D161D369034060
:1058A0000193019B0125464B1B68DB055AD5434BF1
:1058B0001A6AC0239B00110019401A4213D0626873
:1058C00013408B420FD03D4B186A3E4A02401E6A7D
:1058D0008021490231431962196A3B4E31401962F5
:1058E0001A62C30752D4354A136A36490B406168BD
:1058F0000B431362012D58D02368DB0706D52F4ACE
:10590000136B03218B43A1680B43136323689B072D
:1059100006D52A4A136B2D490B40E1680B431363EC
:1059200023689B0606D5254A136B10218B432169FA
:105930000B43136323689B0306D5204A136B802116
:105940008B43A1690B43136323685B0532D51B4A64
:10595000136B40218B4361690B43136300202AE0E2
:105960000025A0E7164A116880235B000B431360F3
:1059700000F076F80600124B1B68DB0597D400F0A8
:105980006FF8801B6428F6D9032014E000F068F853
:1059900006000A4B1B6A9B07A5D400F061F8801B28
:1059A0000B4B9842F5D9032005E0D36909490B4018
:1059B000D361A1E7002002B070BDC04600100240D4
:1059C00000700040FFFCFFFFFFFFFEFFFFFFFCFF3A
:1059D00088130000FFFFFFEF10B504000F4B19788C
:1059E000FA208000FAF7ACFB01000D4B1868FAF7BB
:1059F000A7FB00F0B7FD00280DD1032C01D9012031
:105A00000AE0013000222100404200F06FFD054B0A
:105A10001C60002000E0012010BDC0466C0000208A
:105A2000680000207000002010B5064A136810219D
:105A30000B4313600020FFF7CFFFFDF711F90020A3
:105A400010BDC04600200240034A1168034B1B787A
:105A50005B1813607047C046F01400206C000020F3
:105A6000014B18687047C046F014002070B5040060
:105A7000FFF7F6FF0500631C02D0044B1B78E41807
:105A8000FFF7EEFF401BA042FAD370BD6C00002070
:105A900003689A69920701D500229A6203689A699D
:105AA000D20703D49A6901210A439A61704730B53D
:105AB000CB0709D54123C35C28221340282B01D0F2
:105AC000F22302E01A3300E000238A0709D54424B8
:105AD0001C434122825C28252A40282A0FD0F42228
